{
  "_format": "hh-sol-artifact-1",
  "contractName": "MyEpicNFT",
  "sourceName": "contracts/MyEpicNFT.sol",
  "abi": [
    {
      "inputs": [],
      "stateMutability": "nonpayable",
      "type": "constructor"
    },
    {
      "anonymous": false,
      "inputs": [
        {
          "indexed": true,
          "internalType": "address",
          "name": "owner",
          "type": "address"
        },
        {
          "indexed": true,
          "internalType": "address",
          "name": "approved",
          "type": "address"
        },
        {
          "indexed": true,
          "internalType": "uint256",
          "name": "tokenId",
          "type": "uint256"
        }
      ],
      "name": "Approval",
      "type": "event"
    },
    {
      "anonymous": false,
      "inputs": [
        {
          "indexed": true,
          "internalType": "address",
          "name": "owner",
          "type": "address"
        },
        {
          "indexed": true,
          "internalType": "address",
          "name": "operator",
          "type": "address"
        },
        {
          "indexed": false,
          "internalType": "bool",
          "name": "approved",
          "type": "bool"
        }
      ],
      "name": "ApprovalForAll",
      "type": "event"
    },
    {
      "anonymous": false,
      "inputs": [
        {
          "indexed": false,
          "internalType": "address",
          "name": "sneder",
          "type": "address"
        },
        {
          "indexed": false,
          "internalType": "uint256",
          "name": "tokenId",
          "type": "uint256"
        }
      ],
      "name": "NewEpicNFTMinted",
      "type": "event"
    },
    {
      "anonymous": false,
      "inputs": [
        {
          "indexed": true,
          "internalType": "address",
          "name": "from",
          "type": "address"
        },
        {
          "indexed": true,
          "internalType": "address",
          "name": "to",
          "type": "address"
        },
        {
          "indexed": true,
          "internalType": "uint256",
          "name": "tokenId",
          "type": "uint256"
        }
      ],
      "name": "Transfer",
      "type": "event"
    },
    {
      "inputs": [
        {
          "internalType": "address",
          "name": "to",
          "type": "address"
        },
        {
          "internalType": "uint256",
          "name": "tokenId",
          "type": "uint256"
        }
      ],
      "name": "approve",
      "outputs": [],
      "stateMutability": "nonpayable",
      "type": "function"
    },
    {
      "inputs": [
        {
          "internalType": "address",
          "name": "owner",
          "type": "address"
        }
      ],
      "name": "balanceOf",
      "outputs": [
        {
          "internalType": "uint256",
          "name": "",
          "type": "uint256"
        }
      ],
      "stateMutability": "view",
      "type": "function"
    },
    {
      "inputs": [
        {
          "internalType": "uint256",
          "name": "tokenId",
          "type": "uint256"
        }
      ],
      "name": "getApproved",
      "outputs": [
        {
          "internalType": "address",
          "name": "",
          "type": "address"
        }
      ],
      "stateMutability": "view",
      "type": "function"
    },
    {
      "inputs": [],
      "name": "getTotalNFTMinted",
      "outputs": [
        {
          "internalType": "uint256",
          "name": "",
          "type": "uint256"
        }
      ],
      "stateMutability": "view",
      "type": "function"
    },
    {
      "inputs": [
        {
          "internalType": "address",
          "name": "owner",
          "type": "address"
        },
        {
          "internalType": "address",
          "name": "operator",
          "type": "address"
        }
      ],
      "name": "isApprovedForAll",
      "outputs": [
        {
          "internalType": "bool",
          "name": "",
          "type": "bool"
        }
      ],
      "stateMutability": "view",
      "type": "function"
    },
    {
      "inputs": [],
      "name": "makeAnEpicNFT",
      "outputs": [],
      "stateMutability": "nonpayable",
      "type": "function"
    },
    {
      "inputs": [],
      "name": "name",
      "outputs": [
        {
          "internalType": "string",
          "name": "",
          "type": "string"
        }
      ],
      "stateMutability": "view",
      "type": "function"
    },
    {
      "inputs": [
        {
          "internalType": "uint256",
          "name": "tokenId",
          "type": "uint256"
        }
      ],
      "name": "ownerOf",
      "outputs": [
        {
          "internalType": "address",
          "name": "",
          "type": "address"
        }
      ],
      "stateMutability": "view",
      "type": "function"
    },
    {
      "inputs": [
        {
          "internalType": "uint256",
          "name": "tokenId",
          "type": "uint256"
        }
      ],
      "name": "pickRandomColorFrom",
      "outputs": [
        {
          "internalType": "string",
          "name": "",
          "type": "string"
        }
      ],
      "stateMutability": "view",
      "type": "function"
    },
    {
      "inputs": [
        {
          "internalType": "uint256",
          "name": "tokenId",
          "type": "uint256"
        }
      ],
      "name": "pickRandomColorTo",
      "outputs": [
        {
          "internalType": "string",
          "name": "",
          "type": "string"
        }
      ],
      "stateMutability": "view",
      "type": "function"
    },
    {
      "inputs": [
        {
          "internalType": "uint256",
          "name": "tokenId",
          "type": "uint256"
        }
      ],
      "name": "pickRandomFirstWord",
      "outputs": [
        {
          "internalType": "string",
          "name": "",
          "type": "string"
        }
      ],
      "stateMutability": "view",
      "type": "function"
    },
    {
      "inputs": [
        {
          "internalType": "uint256",
          "name": "tokenId",
          "type": "uint256"
        }
      ],
      "name": "pickRandomSecondWord",
      "outputs": [
        {
          "internalType": "string",
          "name": "",
          "type": "string"
        }
      ],
      "stateMutability": "view",
      "type": "function"
    },
    {
      "inputs": [
        {
          "internalType": "uint256",
          "name": "tokenId",
          "type": "uint256"
        }
      ],
      "name": "pickRandomThirdWord",
      "outputs": [
        {
          "internalType": "string",
          "name": "",
          "type": "string"
        }
      ],
      "stateMutability": "view",
      "type": "function"
    },
    {
      "inputs": [
        {
          "internalType": "address",
          "name": "from",
          "type": "address"
        },
        {
          "internalType": "address",
          "name": "to",
          "type": "address"
        },
        {
          "internalType": "uint256",
          "name": "tokenId",
          "type": "uint256"
        }
      ],
      "name": "safeTransferFrom",
      "outputs": [],
      "stateMutability": "nonpayable",
      "type": "function"
    },
    {
      "inputs": [
        {
          "internalType": "address",
          "name": "from",
          "type": "address"
        },
        {
          "internalType": "address",
          "name": "to",
          "type": "address"
        },
        {
          "internalType": "uint256",
          "name": "tokenId",
          "type": "uint256"
        },
        {
          "internalType": "bytes",
          "name": "_data",
          "type": "bytes"
        }
      ],
      "name": "safeTransferFrom",
      "outputs": [],
      "stateMutability": "nonpayable",
      "type": "function"
    },
    {
      "inputs": [
        {
          "internalType": "address",
          "name": "operator",
          "type": "address"
        },
        {
          "internalType": "bool",
          "name": "approved",
          "type": "bool"
        }
      ],
      "name": "setApprovalForAll",
      "outputs": [],
      "stateMutability": "nonpayable",
      "type": "function"
    },
    {
      "inputs": [
        {
          "internalType": "bytes4",
          "name": "interfaceId",
          "type": "bytes4"
        }
      ],
      "name": "supportsInterface",
      "outputs": [
        {
          "internalType": "bool",
          "name": "",
          "type": "bool"
        }
      ],
      "stateMutability": "view",
      "type": "function"
    },
    {
      "inputs": [],
      "name": "symbol",
      "outputs": [
        {
          "internalType": "string",
          "name": "",
          "type": "string"
        }
      ],
      "stateMutability": "view",
      "type": "function"
    },
    {
      "inputs": [
        {
          "internalType": "uint256",
          "name": "tokenId",
          "type": "uint256"
        }
      ],
      "name": "tokenURI",
      "outputs": [
        {
          "internalType": "string",
          "name": "",
          "type": "string"
        }
      ],
      "stateMutability": "view",
      "type": "function"
    },
    {
      "inputs": [
        {
          "internalType": "address",
          "name": "from",
          "type": "address"
        },
        {
          "internalType": "address",
          "name": "to",
          "type": "address"
        },
        {
          "internalType": "uint256",
          "name": "tokenId",
          "type": "uint256"
        }
      ],
      "name": "transferFrom",
      "outputs": [],
      "stateMutability": "nonpayable",
      "type": "function"
    }
  ],
  "bytecode": "0x608060405260405180610240016040528061021e815260200162004f6b61021e9139600990805190602001906200003892919062000a60565b5060405180610120016040528060e4815260200162004d5b60e49139600a90805190602001906200006b92919062000a60565b5060405180606001604052806038815260200162004e3f60389139600b90805190602001906200009d92919062000a60565b5060405180610120016040528060f4815260200162004e7760f49139600c9080519060200190620000d092919062000a60565b506040518060400160405280600d81526020017f3c2f746578743e3c2f7376673e00000000000000000000000000000000000000815250600d90805190602001906200011e92919062000a60565b506040518060c001604052806040518060400160405280600581526020017f537570657200000000000000000000000000000000000000000000000000000081525081526020016040518060400160405280600781526020017f416d617a696e670000000000000000000000000000000000000000000000000081525081526020016040518060400160405280600481526020017f457069630000000000000000000000000000000000000000000000000000000081525081526020016040518060400160405280600581526020017f4372617a7900000000000000000000000000000000000000000000000000000081525081526020016040518060400160405280600981526020017f46616e746173746963000000000000000000000000000000000000000000000081525081526020016040518060400160405280600481526020017f57696c6400000000000000000000000000000000000000000000000000000000815250815250600e9060066200029c92919062000af1565b506040518060c001604052806040518060400160405280600581526020017f506f77657200000000000000000000000000000000000000000000000000000081525081526020016040518060400160405280600581526020017f5374756e7400000000000000000000000000000000000000000000000000000081525081526020016040518060400160405280600781526020017f436869636b656e0000000000000000000000000000000000000000000000000081525081526020016040518060400160405280600481526020017f436f64650000000000000000000000000000000000000000000000000000000081525081526020016040518060400160405280600481526020017f47616d650000000000000000000000000000000000000000000000000000000081525081526020016040518060400160405280600581526020017f53616c6164000000000000000000000000000000000000000000000000000000815250815250600f9060066200041a92919062000af1565b506040518060c001604052806040518060400160405280600681526020017f4e617275746f000000000000000000000000000000000000000000000000000081525081526020016040518060400160405280600681526020017f536173756b65000000000000000000000000000000000000000000000000000081525081526020016040518060400160405280600481526020017f476f6b750000000000000000000000000000000000000000000000000000000081525081526020016040518060400160405280600481526020017f4d6272650000000000000000000000000000000000000000000000000000000081525081526020016040518060400160405280600481526020017f457369740000000000000000000000000000000000000000000000000000000081525081526020016040518060400160405280600581526020017f4d6d6f796f00000000000000000000000000000000000000000000000000000081525081525060109060066200059892919062000af1565b506040518060c001604052806040518060400160405280600781526020017f233661623163380000000000000000000000000000000000000000000000000081525081526020016040518060400160405280600781526020017f233038433241380000000000000000000000000000000000000000000000000081525081526020016040518060400160405280600781526020017f233630633635370000000000000000000000000000000000000000000000000081525081526020016040518060400160405280600681526020017f6f72616e6765000000000000000000000000000000000000000000000000000081525081526020016040518060400160405280600481526020017f626c75650000000000000000000000000000000000000000000000000000000081525081526020016040518060400160405280600581526020017f677265656e00000000000000000000000000000000000000000000000000000081525081525060119060066200071692919062000af1565b506040518060c001604052806040518060400160405280600781526020017f236264653966610000000000000000000000000000000000000000000000000081525081526020016040518060400160405280600781526020017f233038433241380000000000000000000000000000000000000000000000000081525081526020016040518060400160405280600781526020017f233335616565320000000000000000000000000000000000000000000000000081525081526020016040518060400160405280600681526020017f79656c6c6f77000000000000000000000000000000000000000000000000000081525081526020016040518060400160405280600781526020017f233661623163380000000000000000000000000000000000000000000000000081525081526020016040518060400160405280600581526020017f677265656e00000000000000000000000000000000000000000000000000000081525081525060129060066200089492919062000af1565b50348015620008a257600080fd5b506040518060400160405280600a81526020017f41637573686c614e4654000000000000000000000000000000000000000000008152506040518060400160405280600681526020017f535155415245000000000000000000000000000000000000000000000000000081525081600090805190602001906200092792919062000a60565b5080600190805190602001906200094092919062000a60565b5050506200098e6040518060400160405280601e81526020017f54686973206973206d79204e465420636f6e74726163742e2057686f612100008152506200099460201b620014891760201c565b62000d12565b62000a3481604051602401620009ab919062000c26565b6040516020818303038152906040527f41304fac000000000000000000000000000000000000000000000000000000007bffffffffffffffffffffffffffffffffffffffffffffffffffffffff19166020820180517bffffffffffffffffffffffffffffffffffffffffffffffffffffffff838183161783525050505062000a3760201b60201c565b50565b60008151905060006a636f6e736f6c652e6c6f679050602083016000808483855afa5050505050565b82805462000a6e9062000c9c565b90600052602060002090601f01602090048101928262000a92576000855562000ade565b82601f1062000aad57805160ff191683800117855562000ade565b8280016001018555821562000ade579182015b8281111562000add57825182559160200191906001019062000ac0565b5b50905062000aed919062000b58565b5090565b82805482825590600052602060002090810192821562000b45579160200282015b8281111562000b4457825182908051906020019062000b3392919062000a60565b509160200191906001019062000b12565b5b50905062000b54919062000b77565b5090565b5b8082111562000b7357600081600090555060010162000b59565b5090565b5b8082111562000b9b576000818162000b91919062000b9f565b5060010162000b78565b5090565b50805462000bad9062000c9c565b6000825580601f1062000bc1575062000be2565b601f01602090049060005260206000209081019062000be1919062000b58565b5b50565b600062000bf28262000c4a565b62000bfe818562000c55565b935062000c1081856020860162000c66565b62000c1b8162000d01565b840191505092915050565b6000602082019050818103600083015262000c42818462000be5565b905092915050565b600081519050919050565b600082825260208201905092915050565b60005b8381101562000c8657808201518184015260208101905062000c69565b8381111562000c96576000848401525b50505050565b6000600282049050600182168062000cb557607f821691505b6020821081141562000ccc5762000ccb62000cd2565b5b50919050565b7f4e487b7100000000000000000000000000000000000000000000000000000000600052602260045260246000fd5b6000601f19601f8301169050919050565b6140398062000d226000396000f3fe608060405234801561001057600080fd5b506004361061012c5760003560e01c806370a08231116100ad578063b88d4fde11610071578063b88d4fde1461037b578063c575757a14610397578063c87b56dd146103c7578063de9d132f146103f7578063e985e9c5146104015761012c565b806370a08231146102c357806395d89b41146102f3578063986f5be214610311578063a22cb4651461032f578063b187301f1461034b5761012c565b806323b872dd116100f457806323b872dd146101fb5780632de38d681461021757806342842e0e1461024757806346a93fab146102635780636352211e146102935761012c565b806301ffc9a71461013157806306fdde0314610161578063081812fc1461017f578063095ea7b3146101af578063105d83ee146101cb575b600080fd5b61014b60048036038101906101469190612951565b610431565b6040516101589190613160565b60405180910390f35b610169610513565b604051610176919061317b565b60405180910390f35b610199600480360381019061019491906129a3565b6105a5565b6040516101a691906130d0565b60405180910390f35b6101c960048036038101906101c49190612915565b61062a565b005b6101e560048036038101906101e091906129a3565b610742565b6040516101f2919061317b565b60405180910390f35b6102156004803603810190610210919061280f565b610860565b005b610231600480360381019061022c91906129a3565b6108c0565b60405161023e919061317b565b60405180910390f35b610261600480360381019061025c919061280f565b6109de565b005b61027d600480360381019061027891906129a3565b6109fe565b60405161028a919061317b565b60405180910390f35b6102ad60048036038101906102a891906129a3565b610b1c565b6040516102ba91906130d0565b60405180910390f35b6102dd60048036038101906102d891906127aa565b610bce565b6040516102ea919061342b565b60405180910390f35b6102fb610c86565b604051610308919061317b565b60405180910390f35b610319610d18565b604051610326919061342b565b60405180910390f35b610349600480360381019061034491906128d9565b610d22565b005b610365600480360381019061036091906129a3565b610d38565b604051610372919061317b565b60405180910390f35b6103956004803603810190610390919061285e565b610e56565b005b6103b160048036038101906103ac91906129a3565b610eb8565b6040516103be919061317b565b60405180910390f35b6103e160048036038101906103dc91906129a3565b610fd6565b6040516103ee919061317b565b60405180910390f35b6103ff611128565b005b61041b600480360381019061041691906127d3565b6113f5565b6040516104289190613160565b60405180910390f35b60007f80ac58cd000000000000000000000000000000000000000000000000000000007bffffffffffffffffffffffffffffffffffffffffffffffffffffffff1916827bffffffffffffffffffffffffffffffffffffffffffffffffffffffff191614806104fc57507f5b5e139f000000000000000000000000000000000000000000000000000000007bffffffffffffffffffffffffffffffffffffffffffffffffffffffff1916827bffffffffffffffffffffffffffffffffffffffffffffffffffffffff1916145b8061050c575061050b82611522565b5b9050919050565b606060008054610522906136bf565b80601f016020809104026020016040519081016040528092919081815260200182805461054e906136bf565b801561059b5780601f106105705761010080835404028352916020019161059b565b820191906000526020600020905b81548152906001019060200180831161057e57829003601f168201915b5050505050905090565b60006105b08261158c565b6105ef576040517f08c379a00000000000000000000000000000000000000000000000000000000081526004016105e69061338b565b60405180910390fd5b6004600083815260200190815260200160002060009054906101000a900473ffffffffffffffffffffffffffffffffffffffff169050919050565b600061063582610b1c565b90508073ffffffffffffffffffffffffffffffffffffffff168373ffffffffffffffffffffffffffffffffffffffff1614156106a6576040517f08c379a000000000000000000000000000000000000000000000000000000000815260040161069d906133cb565b60405180910390fd5b8073ffffffffffffffffffffffffffffffffffffffff166106c56115f8565b73ffffffffffffffffffffffffffffffffffffffff1614806106f457506106f3816106ee6115f8565b6113f5565b5b610733576040517f08c379a000000000000000000000000000000000000000000000000000000000815260040161072a906132cb565b60405180910390fd5b61073d8383611600565b505050565b60606000610776610752846116b9565b604051602001610762919061308c565b604051602081830303815290604052611866565b905060128054905081610789919061376b565b9050601281815481106107c5577f4e487b7100000000000000000000000000000000000000000000000000000000600052603260045260246000fd5b9060005260206000200180546107da906136bf565b80601f0160208091040260200160405190810160405280929190818152602001828054610806906136bf565b80156108535780601f1061082857610100808354040283529160200191610853565b820191906000526020600020905b81548152906001019060200180831161083657829003601f168201915b5050505050915050919050565b61087161086b6115f8565b82611899565b6108b0576040517f08c379a00000000000000000000000000000000000000000000000000000000081526004016108a7906133eb565b60405180910390fd5b6108bb838383611977565b505050565b606060006108f46108d0846116b9565b6040516020016108e09190613048565b604051602081830303815290604052611866565b9050600e8054905081610907919061376b565b9050600e8181548110610943577f4e487b7100000000000000000000000000000000000000000000000000000000600052603260045260246000fd5b906000526020600020018054610958906136bf565b80601f0160208091040260200160405190810160405280929190818152602001828054610984906136bf565b80156109d15780601f106109a6576101008083540402835291602001916109d1565b820191906000526020600020905b8154815290600101906020018083116109b457829003601f168201915b5050505050915050919050565b6109f983838360405180602001604052806000815250610e56565b505050565b60606000610a32610a0e846116b9565b604051602001610a1e919061306a565b604051602081830303815290604052611866565b905060118054905081610a45919061376b565b905060118181548110610a81577f4e487b7100000000000000000000000000000000000000000000000000000000600052603260045260246000fd5b906000526020600020018054610a96906136bf565b80601f0160208091040260200160405190810160405280929190818152602001828054610ac2906136bf565b8015610b0f5780601f10610ae457610100808354040283529160200191610b0f565b820191906000526020600020905b815481529060010190602001808311610af257829003601f168201915b5050505050915050919050565b6000806002600084815260200190815260200160002060009054906101000a900473ffffffffffffffffffffffffffffffffffffffff169050600073ffffffffffffffffffffffffffffffffffffffff168173ffffffffffffffffffffffffffffffffffffffff161415610bc5576040517f08c379a0000000000000000000000000000000000000000000000000000000008152600401610bbc9061330b565b60405180910390fd5b80915050919050565b60008073ffffffffffffffffffffffffffffffffffffffff168273ffffffffffffffffffffffffffffffffffffffff161415610c3f576040517f08c379a0000000000000000000000000000000000000000000000000000000008152600401610c36906132eb565b60405180910390fd5b600360008373ffffffffffffffffffffffffffffffffffffffff1673ffffffffffffffffffffffffffffffffffffffff168152602001908152602001600020549050919050565b606060018054610c95906136bf565b80601f0160208091040260200160405190810160405280929190818152602001828054610cc1906136bf565b8015610d0e5780601f10610ce357610100808354040283529160200191610d0e565b820191906000526020600020905b815481529060010190602001808311610cf157829003601f168201915b5050505050905090565b6000600854905090565b610d34610d2d6115f8565b8383611bde565b5050565b60606000610d6c610d48846116b9565b604051602001610d5891906130ae565b604051602081830303815290604052611866565b9050600f8054905081610d7f919061376b565b9050600f8181548110610dbb577f4e487b7100000000000000000000000000000000000000000000000000000000600052603260045260246000fd5b906000526020600020018054610dd0906136bf565b80601f0160208091040260200160405190810160405280929190818152602001828054610dfc906136bf565b8015610e495780601f10610e1e57610100808354040283529160200191610e49565b820191906000526020600020905b815481529060010190602001808311610e2c57829003601f168201915b5050505050915050919050565b610e67610e616115f8565b83611899565b610ea6576040517f08c379a0000000000000000000000000000000000000000000000000000000008152600401610e9d906133eb565b60405180910390fd5b610eb284848484611d4b565b50505050565b60606000610eec610ec8846116b9565b604051602001610ed89190612fbf565b604051602081830303815290604052611866565b905060108054905081610eff919061376b565b905060108181548110610f3b577f4e487b7100000000000000000000000000000000000000000000000000000000600052603260045260246000fd5b906000526020600020018054610f50906136bf565b80601f0160208091040260200160405190810160405280929190818152602001828054610f7c906136bf565b8015610fc95780601f10610f9e57610100808354040283529160200191610fc9565b820191906000526020600020905b815481529060010190602001808311610fac57829003601f168201915b5050505050915050919050565b6060610fe18261158c565b611020576040517f08c379a00000000000000000000000000000000000000000000000000000000081526004016110179061336b565b60405180910390fd5b6000600660008481526020019081526020016000208054611040906136bf565b80601f016020809104026020016040519081016040528092919081815260200182805461106c906136bf565b80156110b95780601f1061108e576101008083540402835291602001916110b9565b820191906000526020600020905b81548152906001019060200180831161109c57829003601f168201915b5050505050905060006110ca611da7565b90506000815114156110e0578192505050611123565b6000825111156111155780826040516020016110fd929190612ee3565b60405160208183030381529060405292505050611123565b61111e84611dbe565b925050505b919050565b60336008541061116d576040517f08c379a00000000000000000000000000000000000000000000000000000000081526004016111649061340b565b60405180910390fd5b60006111796007611e65565b90506000611186826108c0565b9050600061119383610d38565b905060006111a084610eb8565b905060008383836040516020016111b993929190612f07565b604051602081830303815290604052905060006111d5866109fe565b905060006111e287610742565b90506000600a83600b84600c88600d6040516020016112079796959493929190612f38565b6040516020818303038152906040529050600061124c8561122784611e73565b604051602001611238929190612fe1565b604051602081830303815290604052611e73565b90506000816040516020016112619190613026565b60405160208183030381529060405290506112b06040518060400160405280601581526020017f0a2d2d2d2d2d2d2d2d2d2d2d2d2d2d2d2d2d2d2d2d0000000000000000000000815250611489565b6112d8816040516020016112c49190612f9d565b604051602081830303815290604052611489565b6113166040518060400160405280601581526020017f2d2d2d2d2d2d2d2d2d2d2d2d2d2d2d2d2d2d2d2d0a0000000000000000000000815250611489565b611320338b612031565b61132a8a8261204f565b61134d604051806060016040528060258152602001613f9f602591398b336120c3565b61138e6040518060400160405280600d81526020017f546f74616c206d696e7465643a00000000000000000000000000000000000000815250600854612162565b61139860076121fe565b600860008154809291906113ab90613722565b91905055507febb98688741ffa4c7589bf325de30cf7becb63de567842e1ccdb6cb949fdc82c338b6040516113e1929190613137565b60405180910390a150505050505050505050565b6000600560008473ffffffffffffffffffffffffffffffffffffffff1673ffffffffffffffffffffffffffffffffffffffff16815260200190815260200160002060008373ffffffffffffffffffffffffffffffffffffffff1673ffffffffffffffffffffffffffffffffffffffff16815260200190815260200160002060009054906101000a900460ff16905092915050565b61151f8160405160240161149d919061317b565b6040516020818303038152906040527f41304fac000000000000000000000000000000000000000000000000000000007bffffffffffffffffffffffffffffffffffffffffffffffffffffffff19166020820180517bffffffffffffffffffffffffffffffffffffffffffffffffffffffff8381831617835250505050612214565b50565b60007f01ffc9a7000000000000000000000000000000000000000000000000000000007bffffffffffffffffffffffffffffffffffffffffffffffffffffffff1916827bffffffffffffffffffffffffffffffffffffffffffffffffffffffff1916149050919050565b60008073ffffffffffffffffffffffffffffffffffffffff166002600084815260200190815260200160002060009054906101000a900473ffffffffffffffffffffffffffffffffffffffff1673ffffffffffffffffffffffffffffffffffffffff1614159050919050565b600033905090565b816004600083815260200190815260200160002060006101000a81548173ffffffffffffffffffffffffffffffffffffffff021916908373ffffffffffffffffffffffffffffffffffffffff160217905550808273ffffffffffffffffffffffffffffffffffffffff1661167383610b1c565b73ffffffffffffffffffffffffffffffffffffffff167f8c5be1e5ebec7d5bd14f71427d1e84f3dd0314c0f7b2291e5b200ac8c7c3b92560405160405180910390a45050565b60606000821415611701576040518060400160405280600181526020017f30000000000000000000000000000000000000000000000000000000000000008152509050611861565b600082905060005b6000821461173357808061171c90613722565b915050600a8261172c919061354a565b9150611709565b60008167ffffffffffffffff811115611775577f4e487b7100000000000000000000000000000000000000000000000000000000600052604160045260246000fd5b6040519080825280601f01601f1916602001820160405280156117a75781602001600182028036833780820191505090505b5090505b6000851461185a576001826117c091906135d5565b9150600a856117cf919061376b565b60306117db91906134f4565b60f81b818381518110611817577f4e487b7100000000000000000000000000000000000000000000000000000000600052603260045260246000fd5b60200101907effffffffffffffffffffffffffffffffffffffffffffffffffffffffffffff1916908160001a905350600a85611853919061354a565b94506117ab565b8093505050505b919050565b6000816040516020016118799190612ecc565b6040516020818303038152906040528051906020012060001c9050919050565b60006118a48261158c565b6118e3576040517f08c379a00000000000000000000000000000000000000000000000000000000081526004016118da906132ab565b60405180910390fd5b60006118ee83610b1c565b90508073ffffffffffffffffffffffffffffffffffffffff168473ffffffffffffffffffffffffffffffffffffffff16148061195d57508373ffffffffffffffffffffffffffffffffffffffff16611945846105a5565b73ffffffffffffffffffffffffffffffffffffffff16145b8061196e575061196d81856113f5565b5b91505092915050565b8273ffffffffffffffffffffffffffffffffffffffff1661199782610b1c565b73ffffffffffffffffffffffffffffffffffffffff16146119ed576040517f08c379a00000000000000000000000000000000000000000000000000000000081526004016119e49061322b565b60405180910390fd5b600073ffffffffffffffffffffffffffffffffffffffff168273ffffffffffffffffffffffffffffffffffffffff161415611a5d576040517f08c379a0000000000000000000000000000000000000000000000000000000008152600401611a549061326b565b60405180910390fd5b611a6883838361223d565b611a73600082611600565b6001600360008573ffffffffffffffffffffffffffffffffffffffff1673ffffffffffffffffffffffffffffffffffffffff1681526020019081526020016000206000828254611ac391906135d5565b925050819055506001600360008473ffffffffffffffffffffffffffffffffffffffff1673ffffffffffffffffffffffffffffffffffffffff1681526020019081526020016000206000828254611b1a91906134f4565b92505081905550816002600083815260200190815260200160002060006101000a81548173ffffffffffffffffffffffffffffffffffffffff021916908373ffffffffffffffffffffffffffffffffffffffff160217905550808273ffffffffffffffffffffffffffffffffffffffff168473ffffffffffffffffffffffffffffffffffffffff167fddf252ad1be2c89b69c2b068fc378daa952ba7f163c4a11628f55a4df523b3ef60405160405180910390a4611bd9838383612242565b505050565b8173ffffffffffffffffffffffffffffffffffffffff168373ffffffffffffffffffffffffffffffffffffffff161415611c4d576040517f08c379a0000000000000000000000000000000000000000000000000000000008152600401611c449061328b565b60405180910390fd5b80600560008573ffffffffffffffffffffffffffffffffffffffff1673ffffffffffffffffffffffffffffffffffffffff16815260200190815260200160002060008473ffffffffffffffffffffffffffffffffffffffff1673ffffffffffffffffffffffffffffffffffffffff16815260200190815260200160002060006101000a81548160ff0219169083151502179055508173ffffffffffffffffffffffffffffffffffffffff168373ffffffffffffffffffffffffffffffffffffffff167f17307eab39ab6107e8899845ad3d59bd9653f200f220920489ca2b5937696c3183604051611d3e9190613160565b60405180910390a3505050565b611d56848484611977565b611d6284848484612247565b611da1576040517f08c379a0000000000000000000000000000000000000000000000000000000008152600401611d989061320b565b60405180910390fd5b50505050565b606060405180602001604052806000815250905090565b6060611dc98261158c565b611e08576040517f08c379a0000000000000000000000000000000000000000000000000000000008152600401611dff906133ab565b60405180910390fd5b6000611e12611da7565b90506000815111611e325760405180602001604052806000815250611e5d565b80611e3c846116b9565b604051602001611e4d929190612ee3565b6040516020818303038152906040525b915050919050565b600081600001549050919050565b60606000825190506000811415611e9c576040518060200160405280600081525091505061202c565b60006003600283611ead91906134f4565b611eb7919061354a565b6004611ec3919061357b565b90506000602082611ed491906134f4565b67ffffffffffffffff811115611f13577f4e487b7100000000000000000000000000000000000000000000000000000000600052604160045260246000fd5b6040519080825280601f01601f191660200182016040528015611f455781602001600182028036833780820191505090505b5090506000604051806060016040528060408152602001613fc4604091399050600181016020830160005b86811015611fe95760038101905062ffffff818a015116603f8160121c168401518060081b905060ff603f83600c1c1686015116810190508060081b905060ff603f8360061c1686015116810190508060081b905060ff603f831686015116810190508060e01b90508084526004840193505050611f70565b50600386066001811461200357600281146120135761201e565b613d3d60f01b600283035261201e565b603d60f81b60018303525b508484525050819450505050505b919050565b61204b8282604051806020016040528060008152506123de565b5050565b6120588261158c565b612097576040517f08c379a000000000000000000000000000000000000000000000000000000000815260040161208e9061332b565b60405180910390fd5b806006600084815260200190815260200160002090805190602001906120be929190612636565b505050565b61215d8383836040516024016120db939291906131cd565b6040516020818303038152906040527fe3849f79000000000000000000000000000000000000000000000000000000007bffffffffffffffffffffffffffffffffffffffffffffffffffffffff19166020820180517bffffffffffffffffffffffffffffffffffffffffffffffffffffffff8381831617835250505050612214565b505050565b6121fa828260405160240161217892919061319d565b6040516020818303038152906040527f9710a9d0000000000000000000000000000000000000000000000000000000007bffffffffffffffffffffffffffffffffffffffffffffffffffffffff19166020820180517bffffffffffffffffffffffffffffffffffffffffffffffffffffffff8381831617835250505050612214565b5050565b6001816000016000828254019250508190555050565b60008151905060006a636f6e736f6c652e6c6f679050602083016000808483855afa5050505050565b505050565b505050565b60006122688473ffffffffffffffffffffffffffffffffffffffff16612439565b156123d1578373ffffffffffffffffffffffffffffffffffffffff1663150b7a026122916115f8565b8786866040518563ffffffff1660e01b81526004016122b394939291906130eb565b602060405180830381600087803b1580156122cd57600080fd5b505af19250505080156122fe57506040513d601f19601f820116820180604052508101906122fb919061297a565b60015b612381573d806000811461232e576040519150601f19603f3d011682016040523d82523d6000602084013e612333565b606091505b50600081511415612379576040517f08c379a00000000000000000000000000000000000000000000000000000000081526004016123709061320b565b60405180910390fd5b805181602001fd5b63150b7a0260e01b7bffffffffffffffffffffffffffffffffffffffffffffffffffffffff1916817bffffffffffffffffffffffffffffffffffffffffffffffffffffffff1916149150506123d6565b600190505b949350505050565b6123e8838361245c565b6123f56000848484612247565b612434576040517f08c379a000000000000000000000000000000000000000000000000000000000815260040161242b9061320b565b60405180910390fd5b505050565b6000808273ffffffffffffffffffffffffffffffffffffffff163b119050919050565b600073ffffffffffffffffffffffffffffffffffffffff168273ffffffffffffffffffffffffffffffffffffffff1614156124cc576040517f08c379a00000000000000000000000000000000000000000000000000000000081526004016124c39061334b565b60405180910390fd5b6124d58161158c565b15612515576040517f08c379a000000000000000000000000000000000000000000000000000000000815260040161250c9061324b565b60405180910390fd5b6125216000838361223d565b6001600360008473ffffffffffffffffffffffffffffffffffffffff1673ffffffffffffffffffffffffffffffffffffffff168152602001908152602001600020600082825461257191906134f4565b92505081905550816002600083815260200190815260200160002060006101000a81548173ffffffffffffffffffffffffffffffffffffffff021916908373ffffffffffffffffffffffffffffffffffffffff160217905550808273ffffffffffffffffffffffffffffffffffffffff16600073ffffffffffffffffffffffffffffffffffffffff167fddf252ad1be2c89b69c2b068fc378daa952ba7f163c4a11628f55a4df523b3ef60405160405180910390a461263260008383612242565b5050565b828054612642906136bf565b90600052602060002090601f01602090048101928261266457600085556126ab565b82601f1061267d57805160ff19168380011785556126ab565b828001600101855582156126ab579182015b828111156126aa57825182559160200191906001019061268f565b5b5090506126b891906126bc565b5090565b5b808211156126d55760008160009055506001016126bd565b5090565b60006126ec6126e78461346b565b613446565b90508281526020810184848401111561270457600080fd5b61270f84828561367d565b509392505050565b60008135905061272681613f42565b92915050565b60008135905061273b81613f59565b92915050565b60008135905061275081613f70565b92915050565b60008151905061276581613f70565b92915050565b600082601f83011261277c57600080fd5b813561278c8482602086016126d9565b91505092915050565b6000813590506127a481613f87565b92915050565b6000602082840312156127bc57600080fd5b60006127ca84828501612717565b91505092915050565b600080604083850312156127e657600080fd5b60006127f485828601612717565b925050602061280585828601612717565b9150509250929050565b60008060006060848603121561282457600080fd5b600061283286828701612717565b935050602061284386828701612717565b925050604061285486828701612795565b9150509250925092565b6000806000806080858703121561287457600080fd5b600061288287828801612717565b945050602061289387828801612717565b93505060406128a487828801612795565b925050606085013567ffffffffffffffff8111156128c157600080fd5b6128cd8782880161276b565b91505092959194509250565b600080604083850312156128ec57600080fd5b60006128fa85828601612717565b925050602061290b8582860161272c565b9150509250929050565b6000806040838503121561292857600080fd5b600061293685828601612717565b925050602061294785828601612795565b9150509250929050565b60006020828403121561296357600080fd5b600061297184828501612741565b91505092915050565b60006020828403121561298c57600080fd5b600061299a84828501612756565b91505092915050565b6000602082840312156129b557600080fd5b60006129c384828501612795565b91505092915050565b6129d581613609565b82525050565b6129e48161361b565b82525050565b60006129f5826134b1565b6129ff81856134c7565b9350612a0f81856020860161368c565b612a1881613858565b840191505092915050565b6000612a2e826134bc565b612a3881856134d8565b9350612a4881856020860161368c565b612a5181613858565b840191505092915050565b6000612a67826134bc565b612a7181856134e9565b9350612a8181856020860161368c565b80840191505092915050565b60008154612a9a816136bf565b612aa481866134e9565b94506001821660008114612abf5760018114612ad057612b03565b60ff19831686528186019350612b03565b612ad98561349c565b60005b83811015612afb57815481890152600182019150602081019050612adc565b838801955050505b50505092915050565b6000612b196025836134e9565b9150612b2482613869565b602582019050919050565b6000612b3c6032836134d8565b9150612b47826138b8565b604082019050919050565b6000612b5f6025836134d8565b9150612b6a82613907565b604082019050919050565b6000612b82601c836134d8565b9150612b8d82613956565b602082019050919050565b6000612ba56024836134d8565b9150612bb08261397f565b604082019050919050565b6000612bc86019836134d8565b9150612bd3826139ce565b602082019050919050565b6000612beb6063836134e9565b9150612bf6826139f7565b606382019050919050565b6000612c0e602c836134d8565b9150612c1982613a92565b604082019050919050565b6000612c316006836134e9565b9150612c3c82613ae1565b600682019050919050565b6000612c546038836134d8565b9150612c5f82613b0a565b604082019050919050565b6000612c77602a836134d8565b9150612c8282613b59565b604082019050919050565b6000612c9a6029836134d8565b9150612ca582613ba8565b604082019050919050565b6000612cbd602e836134d8565b9150612cc882613bf7565b604082019050919050565b6000612ce06002836134e9565b9150612ceb82613c46565b600282019050919050565b6000612d036020836134d8565b9150612d0e82613c6f565b602082019050919050565b6000612d266031836134d8565b9150612d3182613c98565b604082019050919050565b6000612d49602c836134d8565b9150612d5482613ce7565b604082019050919050565b6000612d6c602f836134d8565b9150612d7782613d36565b604082019050919050565b6000612d8f600a836134e9565b9150612d9a82613d85565b600a82019050919050565b6000612db26021836134d8565b9150612dbd82613dae565b604082019050919050565b6000612dd5601d836134e9565b9150612de082613dfd565b601d82019050919050565b6000612df86031836134d8565b9150612e0382613e26565b604082019050919050565b6000612e1b6005836134e9565b9150612e2682613e75565b600582019050919050565b6000612e3e6018836134d8565b9150612e4982613e9e565b602082019050919050565b6000612e616005836134e9565b9150612e6c82613ec7565b600582019050919050565b6000612e846007836134e9565b9150612e8f82613ef0565b600782019050919050565b6000612ea76007836134e9565b9150612eb282613f19565b600782019050919050565b612ec681613673565b82525050565b6000612ed88284612a5c565b915081905092915050565b6000612eef8285612a5c565b9150612efb8284612a5c565b91508190509392505050565b6000612f138286612a5c565b9150612f1f8285612a5c565b9150612f2b8284612a5c565b9150819050949350505050565b6000612f44828a612a8d565b9150612f508289612a5c565b9150612f5c8288612a8d565b9150612f688287612a5c565b9150612f748286612a8d565b9150612f808285612a5c565b9150612f8c8284612a8d565b915081905098975050505050505050565b6000612fa882612b0c565b9150612fb48284612a5c565b915081905092915050565b6000612fca82612c24565b9150612fd68284612a5c565b915081905092915050565b6000612fec82612d82565b9150612ff88285612a5c565b915061300382612bde565b915061300f8284612a5c565b915061301a82612cd3565b91508190509392505050565b600061303182612dc8565b915061303d8284612a5c565b915081905092915050565b600061305382612e0e565b915061305f8284612a5c565b915081905092915050565b600061307582612e54565b91506130818284612a5c565b915081905092915050565b600061309782612e77565b91506130a38284612a5c565b915081905092915050565b60006130b982612e9a565b91506130c58284612a5c565b915081905092915050565b60006020820190506130e560008301846129cc565b92915050565b600060808201905061310060008301876129cc565b61310d60208301866129cc565b61311a6040830185612ebd565b818103606083015261312c81846129ea565b905095945050505050565b600060408201905061314c60008301856129cc565b6131596020830184612ebd565b9392505050565b600060208201905061317560008301846129db565b92915050565b600060208201905081810360008301526131958184612a23565b905092915050565b600060408201905081810360008301526131b78185612a23565b90506131c66020830184612ebd565b9392505050565b600060608201905081810360008301526131e78186612a23565b90506131f66020830185612ebd565b61320360408301846129cc565b949350505050565b6000602082019050818103600083015261322481612b2f565b9050919050565b6000602082019050818103600083015261324481612b52565b9050919050565b6000602082019050818103600083015261326481612b75565b9050919050565b6000602082019050818103600083015261328481612b98565b9050919050565b600060208201905081810360008301526132a481612bbb565b9050919050565b600060208201905081810360008301526132c481612c01565b9050919050565b600060208201905081810360008301526132e481612c47565b9050919050565b6000602082019050818103600083015261330481612c6a565b9050919050565b6000602082019050818103600083015261332481612c8d565b9050919050565b6000602082019050818103600083015261334481612cb0565b9050919050565b6000602082019050818103600083015261336481612cf6565b9050919050565b6000602082019050818103600083015261338481612d19565b9050919050565b600060208201905081810360008301526133a481612d3c565b9050919050565b600060208201905081810360008301526133c481612d5f565b9050919050565b600060208201905081810360008301526133e481612da5565b9050919050565b6000602082019050818103600083015261340481612deb565b9050919050565b6000602082019050818103600083015261342481612e31565b9050919050565b60006020820190506134406000830184612ebd565b92915050565b6000613450613461565b905061345c82826136f1565b919050565b6000604051905090565b600067ffffffffffffffff82111561348657613485613829565b5b61348f82613858565b9050602081019050919050565b60008190508160005260206000209050919050565b600081519050919050565b600081519050919050565b600082825260208201905092915050565b600082825260208201905092915050565b600081905092915050565b60006134ff82613673565b915061350a83613673565b9250827fffffffffffffffffffffffffffffffffffffffffffffffffffffffffffffffff0382111561353f5761353e61379c565b5b828201905092915050565b600061355582613673565b915061356083613673565b9250826135705761356f6137cb565b5b828204905092915050565b600061358682613673565b915061359183613673565b9250817fffffffffffffffffffffffffffffffffffffffffffffffffffffffffffffffff04831182151516156135ca576135c961379c565b5b828202905092915050565b60006135e082613673565b91506135eb83613673565b9250828210156135fe576135fd61379c565b5b828203905092915050565b600061361482613653565b9050919050565b60008115159050919050565b60007fffffffff0000000000000000000000000000000000000000000000000000000082169050919050565b600073ffffffffffffffffffffffffffffffffffffffff82169050919050565b6000819050919050565b82818337600083830152505050565b60005b838110156136aa57808201518184015260208101905061368f565b838111156136b9576000848401525b50505050565b600060028204905060018216806136d757607f821691505b602082108114156136eb576136ea6137fa565b5b50919050565b6136fa82613858565b810181811067ffffffffffffffff8211171561371957613718613829565b5b80604052505050565b600061372d82613673565b91507fffffffffffffffffffffffffffffffffffffffffffffffffffffffffffffffff8214156137605761375f61379c565b5b600182019050919050565b600061377682613673565b915061378183613673565b925082613791576137906137cb565b5b828206905092915050565b7f4e487b7100000000000000000000000000000000000000000000000000000000600052601160045260246000fd5b7f4e487b7100000000000000000000000000000000000000000000000000000000600052601260045260246000fd5b7f4e487b7100000000000000000000000000000000000000000000000000000000600052602260045260246000fd5b7f4e487b7100000000000000000000000000000000000000000000000000000000600052604160045260246000fd5b6000601f19601f8301169050919050565b7f68747470733a2f2f6e6674707265766965772e30786465762e636f6465732f3f60008201527f636f64653d000000000000000000000000000000000000000000000000000000602082015250565b7f4552433732313a207472616e7366657220746f206e6f6e20455243373231526560008201527f63656976657220696d706c656d656e7465720000000000000000000000000000602082015250565b7f4552433732313a207472616e736665722066726f6d20696e636f72726563742060008201527f6f776e6572000000000000000000000000000000000000000000000000000000602082015250565b7f4552433732313a20746f6b656e20616c7265616479206d696e74656400000000600082015250565b7f4552433732313a207472616e7366657220746f20746865207a65726f2061646460008201527f7265737300000000000000000000000000000000000000000000000000000000602082015250565b7f4552433732313a20617070726f766520746f2063616c6c657200000000000000600082015250565b7f222c20226465736372697074696f6e223a20224120686967686c79206163636c60008201527f61696d656420636f6c6c656374696f6e206f6620737175617265732e222c202260208201527f696d616765223a2022646174613a696d6167652f7376672b786d6c3b6261736560408201527f36342c0000000000000000000000000000000000000000000000000000000000606082015250565b7f4552433732313a206f70657261746f7220717565727920666f72206e6f6e657860008201527f697374656e7420746f6b656e0000000000000000000000000000000000000000602082015250565b7f4e617275746f0000000000000000000000000000000000000000000000000000600082015250565b7f4552433732313a20617070726f76652063616c6c6572206973206e6f74206f7760008201527f6e6572206e6f7220617070726f76656420666f7220616c6c0000000000000000602082015250565b7f4552433732313a2062616c616e636520717565727920666f7220746865207a6560008201527f726f206164647265737300000000000000000000000000000000000000000000602082015250565b7f4552433732313a206f776e657220717565727920666f72206e6f6e657869737460008201527f656e7420746f6b656e0000000000000000000000000000000000000000000000602082015250565b7f45524337323155524953746f726167653a2055524920736574206f66206e6f6e60008201527f6578697374656e7420746f6b656e000000000000000000000000000000000000602082015250565b7f227d000000000000000000000000000000000000000000000000000000000000600082015250565b7f4552433732313a206d696e7420746f20746865207a65726f2061646472657373600082015250565b7f45524337323155524953746f726167653a2055524920717565727920666f722060008201527f6e6f6e6578697374656e7420746f6b656e000000000000000000000000000000602082015250565b7f4552433732313a20617070726f76656420717565727920666f72206e6f6e657860008201527f697374656e7420746f6b656e0000000000000000000000000000000000000000602082015250565b7f4552433732314d657461646174613a2055524920717565727920666f72206e6f60008201527f6e6578697374656e7420746f6b656e0000000000000000000000000000000000602082015250565b7f7b226e616d65223a202200000000000000000000000000000000000000000000600082015250565b7f4552433732313a20617070726f76616c20746f2063757272656e74206f776e6560008201527f7200000000000000000000000000000000000000000000000000000000000000602082015250565b7f646174613a6170706c69636174696f6e2f6a736f6e3b6261736536342c000000600082015250565b7f4552433732313a207472616e736665722063616c6c6572206973206e6f74206f60008201527f776e6572206e6f7220617070726f766564000000000000000000000000000000602082015250565b7f5375706572000000000000000000000000000000000000000000000000000000600082015250565b7f4e4654206d696e746564206c696d697420726561636865640000000000000000600082015250565b7f434f4c4f52000000000000000000000000000000000000000000000000000000600082015250565b7f434f4c4f55525300000000000000000000000000000000000000000000000000600082015250565b7f416d617a696e6700000000000000000000000000000000000000000000000000600082015250565b613f4b81613609565b8114613f5657600080fd5b50565b613f628161361b565b8114613f6d57600080fd5b50565b613f7981613627565b8114613f8457600080fd5b50565b613f9081613673565b8114613f9b57600080fd5b5056fe416e204e465420772f20494420257320686173206265656e206d696e74656420746f2025734142434445464748494a4b4c4d4e4f505152535455565758595a6162636465666768696a6b6c6d6e6f707172737475767778797a303132333435363738392b2fa2646970667358221220182ad6924bb6e60421a29c62127d4ff2439bf3fd2883e1863bd576f580055e3b64736f6c634300080100333c73766720786d6c6e733d22687474703a2f2f7777772e77332e6f72672f323030302f73766722207072657365727665417370656374526174696f3d22784d696e594d696e206d656574222076696577426f783d223020302033353020333530223e3c646566733e3c6c696e6561724772616469656e742069643d2261222078313d223025222079313d223025222078323d2231303025222079323d22302522206772616469656e745472616e73666f726d3d22726f7461746528333029223e3c73746f70206f66667365743d22302522207374796c653d2273746f702d636f6c6f723a3b73746f702d6f7061636974793a31222f3e3c73746f70206f66667365743d223130302522207374796c653d2273746f702d636f6c6f723a3b73746f702d6f7061636974793a31222f3e3c2f6c696e6561724772616469656e743e3c2f646566733e3c726563742077696474683d223130302522206865696768743d2231303025222066696c6c3d2275726c28236129222f3e3c7465787420783d223530252220793d223530252220646f6d696e616e742d626173656c696e653d226d6964646c652220746578742d616e63686f723d226d6964646c6522207374796c653d2266696c6c3a2671756f743b233033326133372671756f743b3b666f6e742d7765696768743a3730303b666f6e742d66616d696c793a7461686f6d613b666f6e742d73697a653a31367078223e3c73766720786d6c6e733d22687474703a2f2f7777772e77332e6f72672f323030302f73766722207072657365727665417370656374526174696f3d22784d696e594d696e206d656574222076696577426f783d223020302033353020333530223e3c646566733e3c6c696e6561724772616469656e742069643d2261222078313d223025222079313d223025222078323d2231303025222079323d22302522206772616469656e745472616e73666f726d3d22726f7461746528333029223e3c73746f70206f66667365743d22302522207374796c653d2273746f702d636f6c6f723a233661623163383b73746f702d6f7061636974793a31222f3e3c73746f70206f66667365743d223130302522207374796c653d2273746f702d636f6c6f723a236264653966613b73746f702d6f7061636974793a31222f3e3c2f6c696e6561724772616469656e743e3c2f646566733e3c726563742077696474683d223130302522206865696768743d2231303025222066696c6c3d2275726c28236129222f3e3c7465787420783d223530252220793d223530252220646f6d696e616e742d626173656c696e653d226d6964646c652220746578742d616e63686f723d226d6964646c6522207374796c653d2266696c6c3a2671756f743b233033326133372671756f743b3b666f6e742d7765696768743a3730303b666f6e742d66616d696c793a7461686f6d613b666f6e742d73697a653a31367078223e",
  "linkReferences": {},
  "deployedLinkReferences": {}
}