{
  "_format": "hh-sol-artifact-1",
  "contractName": "MyEpicNFT",
  "sourceName": "contracts/MyEpicNFT.sol",
  "abi": [
    {
      "inputs": [],
      "stateMutability": "nonpayable",
      "type": "constructor"
    },
    {
      "anonymous": false,
      "inputs": [
        {
          "indexed": true,
          "internalType": "address",
          "name": "owner",
          "type": "address"
        },
        {
          "indexed": true,
          "internalType": "address",
          "name": "approved",
          "type": "address"
        },
        {
          "indexed": true,
          "internalType": "uint256",
          "name": "tokenId",
          "type": "uint256"
        }
      ],
      "name": "Approval",
      "type": "event"
    },
    {
      "anonymous": false,
      "inputs": [
        {
          "indexed": true,
          "internalType": "address",
          "name": "owner",
          "type": "address"
        },
        {
          "indexed": true,
          "internalType": "address",
          "name": "operator",
          "type": "address"
        },
        {
          "indexed": false,
          "internalType": "bool",
          "name": "approved",
          "type": "bool"
        }
      ],
      "name": "ApprovalForAll",
      "type": "event"
    },
    {
      "anonymous": false,
      "inputs": [
        {
          "indexed": true,
          "internalType": "address",
          "name": "from",
          "type": "address"
        },
        {
          "indexed": true,
          "internalType": "address",
          "name": "to",
          "type": "address"
        },
        {
          "indexed": true,
          "internalType": "uint256",
          "name": "tokenId",
          "type": "uint256"
        }
      ],
      "name": "Transfer",
      "type": "event"
    },
    {
      "inputs": [
        {
          "internalType": "address",
          "name": "to",
          "type": "address"
        },
        {
          "internalType": "uint256",
          "name": "tokenId",
          "type": "uint256"
        }
      ],
      "name": "approve",
      "outputs": [],
      "stateMutability": "nonpayable",
      "type": "function"
    },
    {
      "inputs": [
        {
          "internalType": "address",
          "name": "owner",
          "type": "address"
        }
      ],
      "name": "balanceOf",
      "outputs": [
        {
          "internalType": "uint256",
          "name": "",
          "type": "uint256"
        }
      ],
      "stateMutability": "view",
      "type": "function"
    },
    {
      "inputs": [
        {
          "internalType": "uint256",
          "name": "tokenId",
          "type": "uint256"
        }
      ],
      "name": "getApproved",
      "outputs": [
        {
          "internalType": "address",
          "name": "",
          "type": "address"
        }
      ],
      "stateMutability": "view",
      "type": "function"
    },
    {
      "inputs": [
        {
          "internalType": "address",
          "name": "owner",
          "type": "address"
        },
        {
          "internalType": "address",
          "name": "operator",
          "type": "address"
        }
      ],
      "name": "isApprovedForAll",
      "outputs": [
        {
          "internalType": "bool",
          "name": "",
          "type": "bool"
        }
      ],
      "stateMutability": "view",
      "type": "function"
    },
    {
      "inputs": [],
      "name": "makeAnEpicNFT",
      "outputs": [],
      "stateMutability": "nonpayable",
      "type": "function"
    },
    {
      "inputs": [],
      "name": "name",
      "outputs": [
        {
          "internalType": "string",
          "name": "",
          "type": "string"
        }
      ],
      "stateMutability": "view",
      "type": "function"
    },
    {
      "inputs": [
        {
          "internalType": "uint256",
          "name": "tokenId",
          "type": "uint256"
        }
      ],
      "name": "ownerOf",
      "outputs": [
        {
          "internalType": "address",
          "name": "",
          "type": "address"
        }
      ],
      "stateMutability": "view",
      "type": "function"
    },
    {
      "inputs": [
        {
          "internalType": "uint256",
          "name": "tokenId",
          "type": "uint256"
        }
      ],
      "name": "pickRandomFirstWord",
      "outputs": [
        {
          "internalType": "string",
          "name": "",
          "type": "string"
        }
      ],
      "stateMutability": "view",
      "type": "function"
    },
    {
      "inputs": [
        {
          "internalType": "uint256",
          "name": "tokenId",
          "type": "uint256"
        }
      ],
      "name": "pickRandomSecondWord",
      "outputs": [
        {
          "internalType": "string",
          "name": "",
          "type": "string"
        }
      ],
      "stateMutability": "view",
      "type": "function"
    },
    {
      "inputs": [
        {
          "internalType": "uint256",
          "name": "tokenId",
          "type": "uint256"
        }
      ],
      "name": "pickRandomThirdWord",
      "outputs": [
        {
          "internalType": "string",
          "name": "",
          "type": "string"
        }
      ],
      "stateMutability": "view",
      "type": "function"
    },
    {
      "inputs": [
        {
          "internalType": "address",
          "name": "from",
          "type": "address"
        },
        {
          "internalType": "address",
          "name": "to",
          "type": "address"
        },
        {
          "internalType": "uint256",
          "name": "tokenId",
          "type": "uint256"
        }
      ],
      "name": "safeTransferFrom",
      "outputs": [],
      "stateMutability": "nonpayable",
      "type": "function"
    },
    {
      "inputs": [
        {
          "internalType": "address",
          "name": "from",
          "type": "address"
        },
        {
          "internalType": "address",
          "name": "to",
          "type": "address"
        },
        {
          "internalType": "uint256",
          "name": "tokenId",
          "type": "uint256"
        },
        {
          "internalType": "bytes",
          "name": "_data",
          "type": "bytes"
        }
      ],
      "name": "safeTransferFrom",
      "outputs": [],
      "stateMutability": "nonpayable",
      "type": "function"
    },
    {
      "inputs": [
        {
          "internalType": "address",
          "name": "operator",
          "type": "address"
        },
        {
          "internalType": "bool",
          "name": "approved",
          "type": "bool"
        }
      ],
      "name": "setApprovalForAll",
      "outputs": [],
      "stateMutability": "nonpayable",
      "type": "function"
    },
    {
      "inputs": [
        {
          "internalType": "bytes4",
          "name": "interfaceId",
          "type": "bytes4"
        }
      ],
      "name": "supportsInterface",
      "outputs": [
        {
          "internalType": "bool",
          "name": "",
          "type": "bool"
        }
      ],
      "stateMutability": "view",
      "type": "function"
    },
    {
      "inputs": [],
      "name": "symbol",
      "outputs": [
        {
          "internalType": "string",
          "name": "",
          "type": "string"
        }
      ],
      "stateMutability": "view",
      "type": "function"
    },
    {
      "inputs": [
        {
          "internalType": "uint256",
          "name": "tokenId",
          "type": "uint256"
        }
      ],
      "name": "tokenURI",
      "outputs": [
        {
          "internalType": "string",
          "name": "",
          "type": "string"
        }
      ],
      "stateMutability": "view",
      "type": "function"
    },
    {
      "inputs": [
        {
          "internalType": "address",
          "name": "from",
          "type": "address"
        },
        {
          "internalType": "address",
          "name": "to",
          "type": "address"
        },
        {
          "internalType": "uint256",
          "name": "tokenId",
          "type": "uint256"
        }
      ],
      "name": "transferFrom",
      "outputs": [],
      "stateMutability": "nonpayable",
      "type": "function"
    }
  ],
  "bytecode": "0x608060405260405180610240016040528061021e81526020016200436d61021e913960089080519060200190620000389291906200067e565b506040518060c001604052806040518060400160405280600581526020017f537570657200000000000000000000000000000000000000000000000000000081525081526020016040518060400160405280600781526020017f416d617a696e670000000000000000000000000000000000000000000000000081525081526020016040518060400160405280600481526020017f457069630000000000000000000000000000000000000000000000000000000081525081526020016040518060400160405280600581526020017f4372617a7900000000000000000000000000000000000000000000000000000081525081526020016040518060400160405280600981526020017f46616e746173746963000000000000000000000000000000000000000000000081525081526020016040518060400160405280600481526020017f57696c64000000000000000000000000000000000000000000000000000000008152508152506009906006620001b69291906200070f565b506040518060c001604052806040518060400160405280600581526020017f506f77657200000000000000000000000000000000000000000000000000000081525081526020016040518060400160405280600581526020017f5374756e7400000000000000000000000000000000000000000000000000000081525081526020016040518060400160405280600781526020017f436869636b656e0000000000000000000000000000000000000000000000000081525081526020016040518060400160405280600481526020017f436f64650000000000000000000000000000000000000000000000000000000081525081526020016040518060400160405280600481526020017f47616d650000000000000000000000000000000000000000000000000000000081525081526020016040518060400160405280600581526020017f53616c6164000000000000000000000000000000000000000000000000000000815250815250600a906006620003349291906200070f565b506040518060c001604052806040518060400160405280600681526020017f4e617275746f000000000000000000000000000000000000000000000000000081525081526020016040518060400160405280600681526020017f536173756b65000000000000000000000000000000000000000000000000000081525081526020016040518060400160405280600481526020017f476f6b750000000000000000000000000000000000000000000000000000000081525081526020016040518060400160405280600481526020017f4d6272650000000000000000000000000000000000000000000000000000000081525081526020016040518060400160405280600481526020017f457369740000000000000000000000000000000000000000000000000000000081525081526020016040518060400160405280600581526020017f4d6d6f796f000000000000000000000000000000000000000000000000000000815250815250600b906006620004b29291906200070f565b50348015620004c057600080fd5b506040518060400160405280600a81526020017f41637573686c614e4654000000000000000000000000000000000000000000008152506040518060400160405280600681526020017f53515541524500000000000000000000000000000000000000000000000000008152508160009080519060200190620005459291906200067e565b5080600190805190602001906200055e9291906200067e565b505050620005ac6040518060400160405280601e81526020017f54686973206973206d79204e465420636f6e74726163742e2057686f61210000815250620005b260201b620010a41760201c565b62000930565b6200065281604051602401620005c9919062000844565b6040516020818303038152906040527f41304fac000000000000000000000000000000000000000000000000000000007bffffffffffffffffffffffffffffffffffffffffffffffffffffffff19166020820180517bffffffffffffffffffffffffffffffffffffffffffffffffffffffff83818316178352505050506200065560201b60201c565b50565b60008151905060006a636f6e736f6c652e6c6f679050602083016000808483855afa5050505050565b8280546200068c90620008ba565b90600052602060002090601f016020900481019282620006b05760008555620006fc565b82601f10620006cb57805160ff1916838001178555620006fc565b82800160010185558215620006fc579182015b82811115620006fb578251825591602001919060010190620006de565b5b5090506200070b919062000776565b5090565b82805482825590600052602060002090810192821562000763579160200282015b8281111562000762578251829080519060200190620007519291906200067e565b509160200191906001019062000730565b5b50905062000772919062000795565b5090565b5b808211156200079157600081600090555060010162000777565b5090565b5b80821115620007b95760008181620007af9190620007bd565b5060010162000796565b5090565b508054620007cb90620008ba565b6000825580601f10620007df575062000800565b601f016020900490600052602060002090810190620007ff919062000776565b5b50565b6000620008108262000868565b6200081c818562000873565b93506200082e81856020860162000884565b62000839816200091f565b840191505092915050565b6000602082019050818103600083015262000860818462000803565b905092915050565b600081519050919050565b600082825260208201905092915050565b60005b83811015620008a457808201518184015260208101905062000887565b83811115620008b4576000848401525b50505050565b60006002820490506001821680620008d357607f821691505b60208210811415620008ea57620008e9620008f0565b5b50919050565b7f4e487b7100000000000000000000000000000000000000000000000000000000600052602260045260246000fd5b6000601f19601f8301169050919050565b613a2d80620009406000396000f3fe608060405234801561001057600080fd5b506004361061010b5760003560e01c806370a08231116100a2578063b88d4fde11610071578063b88d4fde146102dc578063c575757a146102f8578063c87b56dd14610328578063de9d132f14610358578063e985e9c5146103625761010b565b806370a082311461024257806395d89b4114610272578063a22cb46514610290578063b187301f146102ac5761010b565b806323b872dd116100de57806323b872dd146101aa5780632de38d68146101c657806342842e0e146101f65780636352211e146102125761010b565b806301ffc9a71461011057806306fdde0314610140578063081812fc1461015e578063095ea7b31461018e575b600080fd5b61012a600480360381019061012591906124d0565b610392565b6040516101379190612bf6565b60405180910390f35b610148610474565b6040516101559190612c11565b60405180910390f35b61017860048036038101906101739190612522565b610506565b6040516101859190612b8f565b60405180910390f35b6101a860048036038101906101a39190612494565b61058b565b005b6101c460048036038101906101bf919061238e565b6106a3565b005b6101e060048036038101906101db9190612522565b610703565b6040516101ed9190612c11565b60405180910390f35b610210600480360381019061020b919061238e565b610821565b005b61022c60048036038101906102279190612522565b610841565b6040516102399190612b8f565b60405180910390f35b61025c60048036038101906102579190612329565b6108f3565b6040516102699190612e71565b60405180910390f35b61027a6109ab565b6040516102879190612c11565b60405180910390f35b6102aa60048036038101906102a59190612458565b610a3d565b005b6102c660048036038101906102c19190612522565b610a53565b6040516102d39190612c11565b60405180910390f35b6102f660048036038101906102f191906123dd565b610b71565b005b610312600480360381019061030d9190612522565b610bd3565b60405161031f9190612c11565b60405180910390f35b610342600480360381019061033d9190612522565b610cf1565b60405161034f9190612c11565b60405180910390f35b610360610e43565b005b61037c60048036038101906103779190612352565b611010565b6040516103899190612bf6565b60405180910390f35b60007f80ac58cd000000000000000000000000000000000000000000000000000000007bffffffffffffffffffffffffffffffffffffffffffffffffffffffff1916827bffffffffffffffffffffffffffffffffffffffffffffffffffffffff1916148061045d57507f5b5e139f000000000000000000000000000000000000000000000000000000007bffffffffffffffffffffffffffffffffffffffffffffffffffffffff1916827bffffffffffffffffffffffffffffffffffffffffffffffffffffffff1916145b8061046d575061046c8261113d565b5b9050919050565b60606000805461048390613105565b80601f01602080910402602001604051908101604052809291908181526020018280546104af90613105565b80156104fc5780601f106104d1576101008083540402835291602001916104fc565b820191906000526020600020905b8154815290600101906020018083116104df57829003601f168201915b5050505050905090565b6000610511826111a7565b610550576040517f08c379a000000000000000000000000000000000000000000000000000000000815260040161054790612df1565b60405180910390fd5b6004600083815260200190815260200160002060009054906101000a900473ffffffffffffffffffffffffffffffffffffffff169050919050565b600061059682610841565b90508073ffffffffffffffffffffffffffffffffffffffff168373ffffffffffffffffffffffffffffffffffffffff161415610607576040517f08c379a00000000000000000000000000000000000000000000000000000000081526004016105fe90612e31565b60405180910390fd5b8073ffffffffffffffffffffffffffffffffffffffff16610626611213565b73ffffffffffffffffffffffffffffffffffffffff16148061065557506106548161064f611213565b611010565b5b610694576040517f08c379a000000000000000000000000000000000000000000000000000000000815260040161068b90612d31565b60405180910390fd5b61069e838361121b565b505050565b6106b46106ae611213565b826112d4565b6106f3576040517f08c379a00000000000000000000000000000000000000000000000000000000081526004016106ea90612e51565b60405180910390fd5b6106fe8383836113b2565b505050565b6060600061073761071384611619565b6040516020016107239190612b4b565b6040516020818303038152906040526117c6565b90506009805490508161074a91906131b1565b905060098181548110610786577f4e487b7100000000000000000000000000000000000000000000000000000000600052603260045260246000fd5b90600052602060002001805461079b90613105565b80601f01602080910402602001604051908101604052809291908181526020018280546107c790613105565b80156108145780601f106107e957610100808354040283529160200191610814565b820191906000526020600020905b8154815290600101906020018083116107f757829003601f168201915b5050505050915050919050565b61083c83838360405180602001604052806000815250610b71565b505050565b6000806002600084815260200190815260200160002060009054906101000a900473ffffffffffffffffffffffffffffffffffffffff169050600073ffffffffffffffffffffffffffffffffffffffff168173ffffffffffffffffffffffffffffffffffffffff1614156108ea576040517f08c379a00000000000000000000000000000000000000000000000000000000081526004016108e190612d71565b60405180910390fd5b80915050919050565b60008073ffffffffffffffffffffffffffffffffffffffff168273ffffffffffffffffffffffffffffffffffffffff161415610964576040517f08c379a000000000000000000000000000000000000000000000000000000000815260040161095b90612d51565b60405180910390fd5b600360008373ffffffffffffffffffffffffffffffffffffffff1673ffffffffffffffffffffffffffffffffffffffff168152602001908152602001600020549050919050565b6060600180546109ba90613105565b80601f01602080910402602001604051908101604052809291908181526020018280546109e690613105565b8015610a335780601f10610a0857610100808354040283529160200191610a33565b820191906000526020600020905b815481529060010190602001808311610a1657829003601f168201915b5050505050905090565b610a4f610a48611213565b83836117f9565b5050565b60606000610a87610a6384611619565b604051602001610a739190612b6d565b6040516020818303038152906040526117c6565b9050600a8054905081610a9a91906131b1565b9050600a8181548110610ad6577f4e487b7100000000000000000000000000000000000000000000000000000000600052603260045260246000fd5b906000526020600020018054610aeb90613105565b80601f0160208091040260200160405190810160405280929190818152602001828054610b1790613105565b8015610b645780601f10610b3957610100808354040283529160200191610b64565b820191906000526020600020905b815481529060010190602001808311610b4757829003601f168201915b5050505050915050919050565b610b82610b7c611213565b836112d4565b610bc1576040517f08c379a0000000000000000000000000000000000000000000000000000000008152600401610bb890612e51565b60405180910390fd5b610bcd84848484611966565b50505050565b60606000610c07610be384611619565b604051602001610bf39190612ac2565b6040516020818303038152906040526117c6565b9050600b8054905081610c1a91906131b1565b9050600b8181548110610c56577f4e487b7100000000000000000000000000000000000000000000000000000000600052603260045260246000fd5b906000526020600020018054610c6b90613105565b80601f0160208091040260200160405190810160405280929190818152602001828054610c9790613105565b8015610ce45780601f10610cb957610100808354040283529160200191610ce4565b820191906000526020600020905b815481529060010190602001808311610cc757829003601f168201915b5050505050915050919050565b6060610cfc826111a7565b610d3b576040517f08c379a0000000000000000000000000000000000000000000000000000000008152600401610d3290612dd1565b60405180910390fd5b6000600660008481526020019081526020016000208054610d5b90613105565b80601f0160208091040260200160405190810160405280929190818152602001828054610d8790613105565b8015610dd45780601f10610da957610100808354040283529160200191610dd4565b820191906000526020600020905b815481529060010190602001808311610db757829003601f168201915b505050505090506000610de56119c2565b9050600081511415610dfb578192505050610e3e565b600082511115610e30578082604051602001610e18929190612a1c565b60405160208183030381529060405292505050610e3e565b610e39846119d9565b925050505b919050565b6000610e4f6007611a80565b90506000610e5c82610703565b90506000610e6983610a53565b90506000610e7684610bd3565b90506000838383604051602001610e8f93929190612a40565b60405160208183030381529060405290506000600882604051602001610eb6929190612a71565b60405160208183030381529060405290506000610efb83610ed684611a8e565b604051602001610ee7929190612ae4565b604051602081830303815290604052611a8e565b9050600081604051602001610f109190612b29565b6040516020818303038152906040529050610f5f6040518060400160405280601581526020017f0a2d2d2d2d2d2d2d2d2d2d2d2d2d2d2d2d2d2d2d2d00000000000000000000008152506110a4565b610f8781604051602001610f739190612aa0565b6040516020818303038152906040526110a4565b610fc56040518060400160405280601581526020017f2d2d2d2d2d2d2d2d2d2d2d2d2d2d2d2d2d2d2d2d0a00000000000000000000008152506110a4565b610fcf3389611c4c565b610fd98882611c6a565b610ffc604051806060016040528060258152602001613993602591398933611cde565b6110066007611d7d565b5050505050505050565b6000600560008473ffffffffffffffffffffffffffffffffffffffff1673ffffffffffffffffffffffffffffffffffffffff16815260200190815260200160002060008373ffffffffffffffffffffffffffffffffffffffff1673ffffffffffffffffffffffffffffffffffffffff16815260200190815260200160002060009054906101000a900460ff16905092915050565b61113a816040516024016110b89190612c11565b6040516020818303038152906040527f41304fac000000000000000000000000000000000000000000000000000000007bffffffffffffffffffffffffffffffffffffffffffffffffffffffff19166020820180517bffffffffffffffffffffffffffffffffffffffffffffffffffffffff8381831617835250505050611d93565b50565b60007f01ffc9a7000000000000000000000000000000000000000000000000000000007bffffffffffffffffffffffffffffffffffffffffffffffffffffffff1916827bffffffffffffffffffffffffffffffffffffffffffffffffffffffff1916149050919050565b60008073ffffffffffffffffffffffffffffffffffffffff166002600084815260200190815260200160002060009054906101000a900473ffffffffffffffffffffffffffffffffffffffff1673ffffffffffffffffffffffffffffffffffffffff1614159050919050565b600033905090565b816004600083815260200190815260200160002060006101000a81548173ffffffffffffffffffffffffffffffffffffffff021916908373ffffffffffffffffffffffffffffffffffffffff160217905550808273ffffffffffffffffffffffffffffffffffffffff1661128e83610841565b73ffffffffffffffffffffffffffffffffffffffff167f8c5be1e5ebec7d5bd14f71427d1e84f3dd0314c0f7b2291e5b200ac8c7c3b92560405160405180910390a45050565b60006112df826111a7565b61131e576040517f08c379a000000000000000000000000000000000000000000000000000000000815260040161131590612d11565b60405180910390fd5b600061132983610841565b90508073ffffffffffffffffffffffffffffffffffffffff168473ffffffffffffffffffffffffffffffffffffffff16148061139857508373ffffffffffffffffffffffffffffffffffffffff1661138084610506565b73ffffffffffffffffffffffffffffffffffffffff16145b806113a957506113a88185611010565b5b91505092915050565b8273ffffffffffffffffffffffffffffffffffffffff166113d282610841565b73ffffffffffffffffffffffffffffffffffffffff1614611428576040517f08c379a000000000000000000000000000000000000000000000000000000000815260040161141f90612c91565b60405180910390fd5b600073ffffffffffffffffffffffffffffffffffffffff168273ffffffffffffffffffffffffffffffffffffffff161415611498576040517f08c379a000000000000000000000000000000000000000000000000000000000815260040161148f90612cd1565b60405180910390fd5b6114a3838383611dbc565b6114ae60008261121b565b6001600360008573ffffffffffffffffffffffffffffffffffffffff1673ffffffffffffffffffffffffffffffffffffffff16815260200190815260200160002060008282546114fe919061301b565b925050819055506001600360008473ffffffffffffffffffffffffffffffffffffffff1673ffffffffffffffffffffffffffffffffffffffff16815260200190815260200160002060008282546115559190612f3a565b92505081905550816002600083815260200190815260200160002060006101000a81548173ffffffffffffffffffffffffffffffffffffffff021916908373ffffffffffffffffffffffffffffffffffffffff160217905550808273ffffffffffffffffffffffffffffffffffffffff168473ffffffffffffffffffffffffffffffffffffffff167fddf252ad1be2c89b69c2b068fc378daa952ba7f163c4a11628f55a4df523b3ef60405160405180910390a4611614838383611dc1565b505050565b60606000821415611661576040518060400160405280600181526020017f300000000000000000000000000000000000000000000000000000000000000081525090506117c1565b600082905060005b6000821461169357808061167c90613168565b915050600a8261168c9190612f90565b9150611669565b60008167ffffffffffffffff8111156116d5577f4e487b7100000000000000000000000000000000000000000000000000000000600052604160045260246000fd5b6040519080825280601f01601f1916602001820160405280156117075781602001600182028036833780820191505090505b5090505b600085146117ba57600182611720919061301b565b9150600a8561172f91906131b1565b603061173b9190612f3a565b60f81b818381518110611777577f4e487b7100000000000000000000000000000000000000000000000000000000600052603260045260246000fd5b60200101907effffffffffffffffffffffffffffffffffffffffffffffffffffffffffffff1916908160001a905350600a856117b39190612f90565b945061170b565b8093505050505b919050565b6000816040516020016117d99190612a05565b6040516020818303038152906040528051906020012060001c9050919050565b8173ffffffffffffffffffffffffffffffffffffffff168373ffffffffffffffffffffffffffffffffffffffff161415611868576040517f08c379a000000000000000000000000000000000000000000000000000000000815260040161185f90612cf1565b60405180910390fd5b80600560008573ffffffffffffffffffffffffffffffffffffffff1673ffffffffffffffffffffffffffffffffffffffff16815260200190815260200160002060008473ffffffffffffffffffffffffffffffffffffffff1673ffffffffffffffffffffffffffffffffffffffff16815260200190815260200160002060006101000a81548160ff0219169083151502179055508173ffffffffffffffffffffffffffffffffffffffff168373ffffffffffffffffffffffffffffffffffffffff167f17307eab39ab6107e8899845ad3d59bd9653f200f220920489ca2b5937696c31836040516119599190612bf6565b60405180910390a3505050565b6119718484846113b2565b61197d84848484611dc6565b6119bc576040517f08c379a00000000000000000000000000000000000000000000000000000000081526004016119b390612c71565b60405180910390fd5b50505050565b606060405180602001604052806000815250905090565b60606119e4826111a7565b611a23576040517f08c379a0000000000000000000000000000000000000000000000000000000008152600401611a1a90612e11565b60405180910390fd5b6000611a2d6119c2565b90506000815111611a4d5760405180602001604052806000815250611a78565b80611a5784611619565b604051602001611a68929190612a1c565b6040516020818303038152906040525b915050919050565b600081600001549050919050565b60606000825190506000811415611ab75760405180602001604052806000815250915050611c47565b60006003600283611ac89190612f3a565b611ad29190612f90565b6004611ade9190612fc1565b90506000602082611aef9190612f3a565b67ffffffffffffffff811115611b2e577f4e487b7100000000000000000000000000000000000000000000000000000000600052604160045260246000fd5b6040519080825280601f01601f191660200182016040528015611b605781602001600182028036833780820191505090505b50905060006040518060600160405280604081526020016139b8604091399050600181016020830160005b86811015611c045760038101905062ffffff818a015116603f8160121c168401518060081b905060ff603f83600c1c1686015116810190508060081b905060ff603f8360061c1686015116810190508060081b905060ff603f831686015116810190508060e01b90508084526004840193505050611b8b565b506003860660018114611c1e5760028114611c2e57611c39565b613d3d60f01b6002830352611c39565b603d60f81b60018303525b508484525050819450505050505b919050565b611c66828260405180602001604052806000815250611f5d565b5050565b611c73826111a7565b611cb2576040517f08c379a0000000000000000000000000000000000000000000000000000000008152600401611ca990612d91565b60405180910390fd5b80600660008481526020019081526020016000209080519060200190611cd99291906121b5565b505050565b611d78838383604051602401611cf693929190612c33565b6040516020818303038152906040527fe3849f79000000000000000000000000000000000000000000000000000000007bffffffffffffffffffffffffffffffffffffffffffffffffffffffff19166020820180517bffffffffffffffffffffffffffffffffffffffffffffffffffffffff8381831617835250505050611d93565b505050565b6001816000016000828254019250508190555050565b60008151905060006a636f6e736f6c652e6c6f679050602083016000808483855afa5050505050565b505050565b505050565b6000611de78473ffffffffffffffffffffffffffffffffffffffff16611fb8565b15611f50578373ffffffffffffffffffffffffffffffffffffffff1663150b7a02611e10611213565b8786866040518563ffffffff1660e01b8152600401611e329493929190612baa565b602060405180830381600087803b158015611e4c57600080fd5b505af1925050508015611e7d57506040513d601f19601f82011682018060405250810190611e7a91906124f9565b60015b611f00573d8060008114611ead576040519150601f19603f3d011682016040523d82523d6000602084013e611eb2565b606091505b50600081511415611ef8576040517f08c379a0000000000000000000000000000000000000000000000000000000008152600401611eef90612c71565b60405180910390fd5b805181602001fd5b63150b7a0260e01b7bffffffffffffffffffffffffffffffffffffffffffffffffffffffff1916817bffffffffffffffffffffffffffffffffffffffffffffffffffffffff191614915050611f55565b600190505b949350505050565b611f678383611fdb565b611f746000848484611dc6565b611fb3576040517f08c379a0000000000000000000000000000000000000000000000000000000008152600401611faa90612c71565b60405180910390fd5b505050565b6000808273ffffffffffffffffffffffffffffffffffffffff163b119050919050565b600073ffffffffffffffffffffffffffffffffffffffff168273ffffffffffffffffffffffffffffffffffffffff16141561204b576040517f08c379a000000000000000000000000000000000000000000000000000000000815260040161204290612db1565b60405180910390fd5b612054816111a7565b15612094576040517f08c379a000000000000000000000000000000000000000000000000000000000815260040161208b90612cb1565b60405180910390fd5b6120a060008383611dbc565b6001600360008473ffffffffffffffffffffffffffffffffffffffff1673ffffffffffffffffffffffffffffffffffffffff16815260200190815260200160002060008282546120f09190612f3a565b92505081905550816002600083815260200190815260200160002060006101000a81548173ffffffffffffffffffffffffffffffffffffffff021916908373ffffffffffffffffffffffffffffffffffffffff160217905550808273ffffffffffffffffffffffffffffffffffffffff16600073ffffffffffffffffffffffffffffffffffffffff167fddf252ad1be2c89b69c2b068fc378daa952ba7f163c4a11628f55a4df523b3ef60405160405180910390a46121b160008383611dc1565b5050565b8280546121c190613105565b90600052602060002090601f0160209004810192826121e3576000855561222a565b82601f106121fc57805160ff191683800117855561222a565b8280016001018555821561222a579182015b8281111561222957825182559160200191906001019061220e565b5b509050612237919061223b565b5090565b5b8082111561225457600081600090555060010161223c565b5090565b600061226b61226684612eb1565b612e8c565b90508281526020810184848401111561228357600080fd5b61228e8482856130c3565b509392505050565b6000813590506122a581613936565b92915050565b6000813590506122ba8161394d565b92915050565b6000813590506122cf81613964565b92915050565b6000815190506122e481613964565b92915050565b600082601f8301126122fb57600080fd5b813561230b848260208601612258565b91505092915050565b6000813590506123238161397b565b92915050565b60006020828403121561233b57600080fd5b600061234984828501612296565b91505092915050565b6000806040838503121561236557600080fd5b600061237385828601612296565b925050602061238485828601612296565b9150509250929050565b6000806000606084860312156123a357600080fd5b60006123b186828701612296565b93505060206123c286828701612296565b92505060406123d386828701612314565b9150509250925092565b600080600080608085870312156123f357600080fd5b600061240187828801612296565b945050602061241287828801612296565b935050604061242387828801612314565b925050606085013567ffffffffffffffff81111561244057600080fd5b61244c878288016122ea565b91505092959194509250565b6000806040838503121561246b57600080fd5b600061247985828601612296565b925050602061248a858286016122ab565b9150509250929050565b600080604083850312156124a757600080fd5b60006124b585828601612296565b92505060206124c685828601612314565b9150509250929050565b6000602082840312156124e257600080fd5b60006124f0848285016122c0565b91505092915050565b60006020828403121561250b57600080fd5b6000612519848285016122d5565b91505092915050565b60006020828403121561253457600080fd5b600061254284828501612314565b91505092915050565b6125548161304f565b82525050565b61256381613061565b82525050565b600061257482612ef7565b61257e8185612f0d565b935061258e8185602086016130d2565b6125978161329e565b840191505092915050565b60006125ad82612f02565b6125b78185612f1e565b93506125c78185602086016130d2565b6125d08161329e565b840191505092915050565b60006125e682612f02565b6125f08185612f2f565b93506126008185602086016130d2565b80840191505092915050565b6000815461261981613105565b6126238186612f2f565b9450600182166000811461263e576001811461264f57612682565b60ff19831686528186019350612682565b61265885612ee2565b60005b8381101561267a5781548189015260018201915060208101905061265b565b838801955050505b50505092915050565b6000612698602583612f2f565b91506126a3826132af565b602582019050919050565b60006126bb603283612f1e565b91506126c6826132fe565b604082019050919050565b60006126de602583612f1e565b91506126e98261334d565b604082019050919050565b6000612701601c83612f1e565b915061270c8261339c565b602082019050919050565b6000612724602483612f1e565b915061272f826133c5565b604082019050919050565b6000612747601983612f1e565b915061275282613414565b602082019050919050565b600061276a606383612f2f565b91506127758261343d565b606382019050919050565b600061278d602c83612f1e565b9150612798826134d8565b604082019050919050565b60006127b0600d83612f2f565b91506127bb82613527565b600d82019050919050565b60006127d3600683612f2f565b91506127de82613550565b600682019050919050565b60006127f6603883612f1e565b915061280182613579565b604082019050919050565b6000612819602a83612f1e565b9150612824826135c8565b604082019050919050565b600061283c602983612f1e565b915061284782613617565b604082019050919050565b600061285f602e83612f1e565b915061286a82613666565b604082019050919050565b6000612882600283612f2f565b915061288d826136b5565b600282019050919050565b60006128a5602083612f1e565b91506128b0826136de565b602082019050919050565b60006128c8603183612f1e565b91506128d382613707565b604082019050919050565b60006128eb602c83612f1e565b91506128f682613756565b604082019050919050565b600061290e602f83612f1e565b9150612919826137a5565b604082019050919050565b6000612931600a83612f2f565b915061293c826137f4565b600a82019050919050565b6000612954602183612f1e565b915061295f8261381d565b604082019050919050565b6000612977601d83612f2f565b91506129828261386c565b601d82019050919050565b600061299a603183612f1e565b91506129a582613895565b604082019050919050565b60006129bd600583612f2f565b91506129c8826138e4565b600582019050919050565b60006129e0600783612f2f565b91506129eb8261390d565b600782019050919050565b6129ff816130b9565b82525050565b6000612a1182846125db565b915081905092915050565b6000612a2882856125db565b9150612a3482846125db565b91508190509392505050565b6000612a4c82866125db565b9150612a5882856125db565b9150612a6482846125db565b9150819050949350505050565b6000612a7d828561260c565b9150612a8982846125db565b9150612a94826127a3565b91508190509392505050565b6000612aab8261268b565b9150612ab782846125db565b915081905092915050565b6000612acd826127c6565b9150612ad982846125db565b915081905092915050565b6000612aef82612924565b9150612afb82856125db565b9150612b068261275d565b9150612b1282846125db565b9150612b1d82612875565b91508190509392505050565b6000612b348261296a565b9150612b4082846125db565b915081905092915050565b6000612b56826129b0565b9150612b6282846125db565b915081905092915050565b6000612b78826129d3565b9150612b8482846125db565b915081905092915050565b6000602082019050612ba4600083018461254b565b92915050565b6000608082019050612bbf600083018761254b565b612bcc602083018661254b565b612bd960408301856129f6565b8181036060830152612beb8184612569565b905095945050505050565b6000602082019050612c0b600083018461255a565b92915050565b60006020820190508181036000830152612c2b81846125a2565b905092915050565b60006060820190508181036000830152612c4d81866125a2565b9050612c5c60208301856129f6565b612c69604083018461254b565b949350505050565b60006020820190508181036000830152612c8a816126ae565b9050919050565b60006020820190508181036000830152612caa816126d1565b9050919050565b60006020820190508181036000830152612cca816126f4565b9050919050565b60006020820190508181036000830152612cea81612717565b9050919050565b60006020820190508181036000830152612d0a8161273a565b9050919050565b60006020820190508181036000830152612d2a81612780565b9050919050565b60006020820190508181036000830152612d4a816127e9565b9050919050565b60006020820190508181036000830152612d6a8161280c565b9050919050565b60006020820190508181036000830152612d8a8161282f565b9050919050565b60006020820190508181036000830152612daa81612852565b9050919050565b60006020820190508181036000830152612dca81612898565b9050919050565b60006020820190508181036000830152612dea816128bb565b9050919050565b60006020820190508181036000830152612e0a816128de565b9050919050565b60006020820190508181036000830152612e2a81612901565b9050919050565b60006020820190508181036000830152612e4a81612947565b9050919050565b60006020820190508181036000830152612e6a8161298d565b9050919050565b6000602082019050612e8660008301846129f6565b92915050565b6000612e96612ea7565b9050612ea28282613137565b919050565b6000604051905090565b600067ffffffffffffffff821115612ecc57612ecb61326f565b5b612ed58261329e565b9050602081019050919050565b60008190508160005260206000209050919050565b600081519050919050565b600081519050919050565b600082825260208201905092915050565b600082825260208201905092915050565b600081905092915050565b6000612f45826130b9565b9150612f50836130b9565b9250827fffffffffffffffffffffffffffffffffffffffffffffffffffffffffffffffff03821115612f8557612f846131e2565b5b828201905092915050565b6000612f9b826130b9565b9150612fa6836130b9565b925082612fb657612fb5613211565b5b828204905092915050565b6000612fcc826130b9565b9150612fd7836130b9565b9250817fffffffffffffffffffffffffffffffffffffffffffffffffffffffffffffffff04831182151516156130105761300f6131e2565b5b828202905092915050565b6000613026826130b9565b9150613031836130b9565b925082821015613044576130436131e2565b5b828203905092915050565b600061305a82613099565b9050919050565b60008115159050919050565b60007fffffffff0000000000000000000000000000000000000000000000000000000082169050919050565b600073ffffffffffffffffffffffffffffffffffffffff82169050919050565b6000819050919050565b82818337600083830152505050565b60005b838110156130f05780820151818401526020810190506130d5565b838111156130ff576000848401525b50505050565b6000600282049050600182168061311d57607f821691505b6020821081141561313157613130613240565b5b50919050565b6131408261329e565b810181811067ffffffffffffffff8211171561315f5761315e61326f565b5b80604052505050565b6000613173826130b9565b91507fffffffffffffffffffffffffffffffffffffffffffffffffffffffffffffffff8214156131a6576131a56131e2565b5b600182019050919050565b60006131bc826130b9565b91506131c7836130b9565b9250826131d7576131d6613211565b5b828206905092915050565b7f4e487b7100000000000000000000000000000000000000000000000000000000600052601160045260246000fd5b7f4e487b7100000000000000000000000000000000000000000000000000000000600052601260045260246000fd5b7f4e487b7100000000000000000000000000000000000000000000000000000000600052602260045260246000fd5b7f4e487b7100000000000000000000000000000000000000000000000000000000600052604160045260246000fd5b6000601f19601f8301169050919050565b7f68747470733a2f2f6e6674707265766965772e30786465762e636f6465732f3f60008201527f636f64653d000000000000000000000000000000000000000000000000000000602082015250565b7f4552433732313a207472616e7366657220746f206e6f6e20455243373231526560008201527f63656976657220696d706c656d656e7465720000000000000000000000000000602082015250565b7f4552433732313a207472616e736665722066726f6d20696e636f72726563742060008201527f6f776e6572000000000000000000000000000000000000000000000000000000602082015250565b7f4552433732313a20746f6b656e20616c7265616479206d696e74656400000000600082015250565b7f4552433732313a207472616e7366657220746f20746865207a65726f2061646460008201527f7265737300000000000000000000000000000000000000000000000000000000602082015250565b7f4552433732313a20617070726f766520746f2063616c6c657200000000000000600082015250565b7f222c20226465736372697074696f6e223a20224120686967686c79206163636c60008201527f61696d656420636f6c6c656374696f6e206f6620737175617265732e222c202260208201527f696d616765223a2022646174613a696d6167652f7376672b786d6c3b6261736560408201527f36342c0000000000000000000000000000000000000000000000000000000000606082015250565b7f4552433732313a206f70657261746f7220717565727920666f72206e6f6e657860008201527f697374656e7420746f6b656e0000000000000000000000000000000000000000602082015250565b7f3c2f746578743e3c2f7376673e00000000000000000000000000000000000000600082015250565b7f4e617275746f0000000000000000000000000000000000000000000000000000600082015250565b7f4552433732313a20617070726f76652063616c6c6572206973206e6f74206f7760008201527f6e6572206e6f7220617070726f76656420666f7220616c6c0000000000000000602082015250565b7f4552433732313a2062616c616e636520717565727920666f7220746865207a6560008201527f726f206164647265737300000000000000000000000000000000000000000000602082015250565b7f4552433732313a206f776e657220717565727920666f72206e6f6e657869737460008201527f656e7420746f6b656e0000000000000000000000000000000000000000000000602082015250565b7f45524337323155524953746f726167653a2055524920736574206f66206e6f6e60008201527f6578697374656e7420746f6b656e000000000000000000000000000000000000602082015250565b7f227d000000000000000000000000000000000000000000000000000000000000600082015250565b7f4552433732313a206d696e7420746f20746865207a65726f2061646472657373600082015250565b7f45524337323155524953746f726167653a2055524920717565727920666f722060008201527f6e6f6e6578697374656e7420746f6b656e000000000000000000000000000000602082015250565b7f4552433732313a20617070726f76656420717565727920666f72206e6f6e657860008201527f697374656e7420746f6b656e0000000000000000000000000000000000000000602082015250565b7f4552433732314d657461646174613a2055524920717565727920666f72206e6f60008201527f6e6578697374656e7420746f6b656e0000000000000000000000000000000000602082015250565b7f7b226e616d65223a202200000000000000000000000000000000000000000000600082015250565b7f4552433732313a20617070726f76616c20746f2063757272656e74206f776e6560008201527f7200000000000000000000000000000000000000000000000000000000000000602082015250565b7f646174613a6170706c69636174696f6e2f6a736f6e3b6261736536342c000000600082015250565b7f4552433732313a207472616e736665722063616c6c6572206973206e6f74206f60008201527f776e6572206e6f7220617070726f766564000000000000000000000000000000602082015250565b7f5375706572000000000000000000000000000000000000000000000000000000600082015250565b7f416d617a696e6700000000000000000000000000000000000000000000000000600082015250565b61393f8161304f565b811461394a57600080fd5b50565b61395681613061565b811461396157600080fd5b50565b61396d8161306d565b811461397857600080fd5b50565b613984816130b9565b811461398f57600080fd5b5056fe416e204e465420772f20494420257320686173206265656e206d696e74656420746f2025734142434445464748494a4b4c4d4e4f505152535455565758595a6162636465666768696a6b6c6d6e6f707172737475767778797a303132333435363738392b2fa2646970667358221220410c97e0f247a113321cf1275af6dbdfe0b8f0e92094b1e884db8d6862f9766764736f6c634300080100333c73766720786d6c6e733d22687474703a2f2f7777772e77332e6f72672f323030302f73766722207072657365727665417370656374526174696f3d22784d696e594d696e206d656574222076696577426f783d223020302033353020333530223e3c646566733e3c6c696e6561724772616469656e742069643d2261222078313d223025222079313d223025222078323d2231303025222079323d22302522206772616469656e745472616e73666f726d3d22726f7461746528333029223e3c73746f70206f66667365743d22302522207374796c653d2273746f702d636f6c6f723a233661623163383b73746f702d6f7061636974793a31222f3e3c73746f70206f66667365743d223130302522207374796c653d2273746f702d636f6c6f723a236264653966613b73746f702d6f7061636974793a31222f3e3c2f6c696e6561724772616469656e743e3c2f646566733e3c726563742077696474683d223130302522206865696768743d2231303025222066696c6c3d2275726c28236129222f3e3c7465787420783d223530252220793d223530252220646f6d696e616e742d626173656c696e653d226d6964646c652220746578742d616e63686f723d226d6964646c6522207374796c653d2266696c6c3a2671756f743b233033326133372671756f743b3b666f6e742d7765696768743a3730303b666f6e742d66616d696c793a7461686f6d613b666f6e742d73697a653a31367078223e",
  "linkReferences": {},
  "deployedLinkReferences": {}
}