{
  "_format": "hh-sol-artifact-1",
  "contractName": "MyEpicNFT",
  "sourceName": "contracts/MyEpicNFT.sol",
  "abi": [
    {
      "inputs": [],
      "stateMutability": "nonpayable",
      "type": "constructor"
    },
    {
      "anonymous": false,
      "inputs": [
        {
          "indexed": true,
          "internalType": "address",
          "name": "owner",
          "type": "address"
        },
        {
          "indexed": true,
          "internalType": "address",
          "name": "approved",
          "type": "address"
        },
        {
          "indexed": true,
          "internalType": "uint256",
          "name": "tokenId",
          "type": "uint256"
        }
      ],
      "name": "Approval",
      "type": "event"
    },
    {
      "anonymous": false,
      "inputs": [
        {
          "indexed": true,
          "internalType": "address",
          "name": "owner",
          "type": "address"
        },
        {
          "indexed": true,
          "internalType": "address",
          "name": "operator",
          "type": "address"
        },
        {
          "indexed": false,
          "internalType": "bool",
          "name": "approved",
          "type": "bool"
        }
      ],
      "name": "ApprovalForAll",
      "type": "event"
    },
    {
      "anonymous": false,
      "inputs": [
        {
          "indexed": false,
          "internalType": "address",
          "name": "sneder",
          "type": "address"
        },
        {
          "indexed": false,
          "internalType": "uint256",
          "name": "tokenId",
          "type": "uint256"
        }
      ],
      "name": "NewEpicNFTMinted",
      "type": "event"
    },
    {
      "anonymous": false,
      "inputs": [
        {
          "indexed": true,
          "internalType": "address",
          "name": "from",
          "type": "address"
        },
        {
          "indexed": true,
          "internalType": "address",
          "name": "to",
          "type": "address"
        },
        {
          "indexed": true,
          "internalType": "uint256",
          "name": "tokenId",
          "type": "uint256"
        }
      ],
      "name": "Transfer",
      "type": "event"
    },
    {
      "inputs": [
        {
          "internalType": "address",
          "name": "to",
          "type": "address"
        },
        {
          "internalType": "uint256",
          "name": "tokenId",
          "type": "uint256"
        }
      ],
      "name": "approve",
      "outputs": [],
      "stateMutability": "nonpayable",
      "type": "function"
    },
    {
      "inputs": [
        {
          "internalType": "address",
          "name": "owner",
          "type": "address"
        }
      ],
      "name": "balanceOf",
      "outputs": [
        {
          "internalType": "uint256",
          "name": "",
          "type": "uint256"
        }
      ],
      "stateMutability": "view",
      "type": "function"
    },
    {
      "inputs": [
        {
          "internalType": "uint256",
          "name": "tokenId",
          "type": "uint256"
        }
      ],
      "name": "getApproved",
      "outputs": [
        {
          "internalType": "address",
          "name": "",
          "type": "address"
        }
      ],
      "stateMutability": "view",
      "type": "function"
    },
    {
      "inputs": [
        {
          "internalType": "address",
          "name": "owner",
          "type": "address"
        },
        {
          "internalType": "address",
          "name": "operator",
          "type": "address"
        }
      ],
      "name": "isApprovedForAll",
      "outputs": [
        {
          "internalType": "bool",
          "name": "",
          "type": "bool"
        }
      ],
      "stateMutability": "view",
      "type": "function"
    },
    {
      "inputs": [],
      "name": "makeAnEpicNFT",
      "outputs": [],
      "stateMutability": "nonpayable",
      "type": "function"
    },
    {
      "inputs": [],
      "name": "name",
      "outputs": [
        {
          "internalType": "string",
          "name": "",
          "type": "string"
        }
      ],
      "stateMutability": "view",
      "type": "function"
    },
    {
      "inputs": [
        {
          "internalType": "uint256",
          "name": "tokenId",
          "type": "uint256"
        }
      ],
      "name": "ownerOf",
      "outputs": [
        {
          "internalType": "address",
          "name": "",
          "type": "address"
        }
      ],
      "stateMutability": "view",
      "type": "function"
    },
    {
      "inputs": [
        {
          "internalType": "uint256",
          "name": "tokenId",
          "type": "uint256"
        }
      ],
      "name": "pickRandomFirstWord",
      "outputs": [
        {
          "internalType": "string",
          "name": "",
          "type": "string"
        }
      ],
      "stateMutability": "view",
      "type": "function"
    },
    {
      "inputs": [
        {
          "internalType": "uint256",
          "name": "tokenId",
          "type": "uint256"
        }
      ],
      "name": "pickRandomSecondWord",
      "outputs": [
        {
          "internalType": "string",
          "name": "",
          "type": "string"
        }
      ],
      "stateMutability": "view",
      "type": "function"
    },
    {
      "inputs": [
        {
          "internalType": "uint256",
          "name": "tokenId",
          "type": "uint256"
        }
      ],
      "name": "pickRandomThirdWord",
      "outputs": [
        {
          "internalType": "string",
          "name": "",
          "type": "string"
        }
      ],
      "stateMutability": "view",
      "type": "function"
    },
    {
      "inputs": [
        {
          "internalType": "address",
          "name": "from",
          "type": "address"
        },
        {
          "internalType": "address",
          "name": "to",
          "type": "address"
        },
        {
          "internalType": "uint256",
          "name": "tokenId",
          "type": "uint256"
        }
      ],
      "name": "safeTransferFrom",
      "outputs": [],
      "stateMutability": "nonpayable",
      "type": "function"
    },
    {
      "inputs": [
        {
          "internalType": "address",
          "name": "from",
          "type": "address"
        },
        {
          "internalType": "address",
          "name": "to",
          "type": "address"
        },
        {
          "internalType": "uint256",
          "name": "tokenId",
          "type": "uint256"
        },
        {
          "internalType": "bytes",
          "name": "_data",
          "type": "bytes"
        }
      ],
      "name": "safeTransferFrom",
      "outputs": [],
      "stateMutability": "nonpayable",
      "type": "function"
    },
    {
      "inputs": [
        {
          "internalType": "address",
          "name": "operator",
          "type": "address"
        },
        {
          "internalType": "bool",
          "name": "approved",
          "type": "bool"
        }
      ],
      "name": "setApprovalForAll",
      "outputs": [],
      "stateMutability": "nonpayable",
      "type": "function"
    },
    {
      "inputs": [
        {
          "internalType": "bytes4",
          "name": "interfaceId",
          "type": "bytes4"
        }
      ],
      "name": "supportsInterface",
      "outputs": [
        {
          "internalType": "bool",
          "name": "",
          "type": "bool"
        }
      ],
      "stateMutability": "view",
      "type": "function"
    },
    {
      "inputs": [],
      "name": "symbol",
      "outputs": [
        {
          "internalType": "string",
          "name": "",
          "type": "string"
        }
      ],
      "stateMutability": "view",
      "type": "function"
    },
    {
      "inputs": [
        {
          "internalType": "uint256",
          "name": "tokenId",
          "type": "uint256"
        }
      ],
      "name": "tokenURI",
      "outputs": [
        {
          "internalType": "string",
          "name": "",
          "type": "string"
        }
      ],
      "stateMutability": "view",
      "type": "function"
    },
    {
      "inputs": [
        {
          "internalType": "address",
          "name": "from",
          "type": "address"
        },
        {
          "internalType": "address",
          "name": "to",
          "type": "address"
        },
        {
          "internalType": "uint256",
          "name": "tokenId",
          "type": "uint256"
        }
      ],
      "name": "transferFrom",
      "outputs": [],
      "stateMutability": "nonpayable",
      "type": "function"
    }
  ],
  "bytecode": "0x608060405260405180610240016040528061021e8152602001620043cf61021e913960089080519060200190620000389291906200067e565b506040518060c001604052806040518060400160405280600581526020017f537570657200000000000000000000000000000000000000000000000000000081525081526020016040518060400160405280600781526020017f416d617a696e670000000000000000000000000000000000000000000000000081525081526020016040518060400160405280600481526020017f457069630000000000000000000000000000000000000000000000000000000081525081526020016040518060400160405280600581526020017f4372617a7900000000000000000000000000000000000000000000000000000081525081526020016040518060400160405280600981526020017f46616e746173746963000000000000000000000000000000000000000000000081525081526020016040518060400160405280600481526020017f57696c64000000000000000000000000000000000000000000000000000000008152508152506009906006620001b69291906200070f565b506040518060c001604052806040518060400160405280600581526020017f506f77657200000000000000000000000000000000000000000000000000000081525081526020016040518060400160405280600581526020017f5374756e7400000000000000000000000000000000000000000000000000000081525081526020016040518060400160405280600781526020017f436869636b656e0000000000000000000000000000000000000000000000000081525081526020016040518060400160405280600481526020017f436f64650000000000000000000000000000000000000000000000000000000081525081526020016040518060400160405280600481526020017f47616d650000000000000000000000000000000000000000000000000000000081525081526020016040518060400160405280600581526020017f53616c6164000000000000000000000000000000000000000000000000000000815250815250600a906006620003349291906200070f565b506040518060c001604052806040518060400160405280600681526020017f4e617275746f000000000000000000000000000000000000000000000000000081525081526020016040518060400160405280600681526020017f536173756b65000000000000000000000000000000000000000000000000000081525081526020016040518060400160405280600481526020017f476f6b750000000000000000000000000000000000000000000000000000000081525081526020016040518060400160405280600481526020017f4d6272650000000000000000000000000000000000000000000000000000000081525081526020016040518060400160405280600481526020017f457369740000000000000000000000000000000000000000000000000000000081525081526020016040518060400160405280600581526020017f4d6d6f796f000000000000000000000000000000000000000000000000000000815250815250600b906006620004b29291906200070f565b50348015620004c057600080fd5b506040518060400160405280600a81526020017f41637573686c614e4654000000000000000000000000000000000000000000008152506040518060400160405280600681526020017f53515541524500000000000000000000000000000000000000000000000000008152508160009080519060200190620005459291906200067e565b5080600190805190602001906200055e9291906200067e565b505050620005ac6040518060400160405280601e81526020017f54686973206973206d79204e465420636f6e74726163742e2057686f61210000815250620005b260201b620010dd1760201c565b62000930565b6200065281604051602401620005c9919062000844565b6040516020818303038152906040527f41304fac000000000000000000000000000000000000000000000000000000007bffffffffffffffffffffffffffffffffffffffffffffffffffffffff19166020820180517bffffffffffffffffffffffffffffffffffffffffffffffffffffffff83818316178352505050506200065560201b60201c565b50565b60008151905060006a636f6e736f6c652e6c6f679050602083016000808483855afa5050505050565b8280546200068c90620008ba565b90600052602060002090601f016020900481019282620006b05760008555620006fc565b82601f10620006cb57805160ff1916838001178555620006fc565b82800160010185558215620006fc579182015b82811115620006fb578251825591602001919060010190620006de565b5b5090506200070b919062000776565b5090565b82805482825590600052602060002090810192821562000763579160200282015b8281111562000762578251829080519060200190620007519291906200067e565b509160200191906001019062000730565b5b50905062000772919062000795565b5090565b5b808211156200079157600081600090555060010162000777565b5090565b5b80821115620007b95760008181620007af9190620007bd565b5060010162000796565b5090565b508054620007cb90620008ba565b6000825580601f10620007df575062000800565b601f016020900490600052602060002090810190620007ff919062000776565b5b50565b6000620008108262000868565b6200081c818562000873565b93506200082e81856020860162000884565b62000839816200091f565b840191505092915050565b6000602082019050818103600083015262000860818462000803565b905092915050565b600081519050919050565b600082825260208201905092915050565b60005b83811015620008a457808201518184015260208101905062000887565b83811115620008b4576000848401525b50505050565b60006002820490506001821680620008d357607f821691505b60208210811415620008ea57620008e9620008f0565b5b50919050565b7f4e487b7100000000000000000000000000000000000000000000000000000000600052602260045260246000fd5b6000601f19601f8301169050919050565b613a8f80620009406000396000f3fe608060405234801561001057600080fd5b506004361061010b5760003560e01c806370a08231116100a2578063b88d4fde11610071578063b88d4fde146102dc578063c575757a146102f8578063c87b56dd14610328578063de9d132f14610358578063e985e9c5146103625761010b565b806370a082311461024257806395d89b4114610272578063a22cb46514610290578063b187301f146102ac5761010b565b806323b872dd116100de57806323b872dd146101aa5780632de38d68146101c657806342842e0e146101f65780636352211e146102125761010b565b806301ffc9a71461011057806306fdde0314610140578063081812fc1461015e578063095ea7b31461018e575b600080fd5b61012a60048036038101906101259190612509565b610392565b6040516101379190612c58565b60405180910390f35b610148610474565b6040516101559190612c73565b60405180910390f35b6101786004803603810190610173919061255b565b610506565b6040516101859190612bc8565b60405180910390f35b6101a860048036038101906101a391906124cd565b61058b565b005b6101c460048036038101906101bf91906123c7565b6106a3565b005b6101e060048036038101906101db919061255b565b610703565b6040516101ed9190612c73565b60405180910390f35b610210600480360381019061020b91906123c7565b610821565b005b61022c6004803603810190610227919061255b565b610841565b6040516102399190612bc8565b60405180910390f35b61025c60048036038101906102579190612362565b6108f3565b6040516102699190612ed3565b60405180910390f35b61027a6109ab565b6040516102879190612c73565b60405180910390f35b6102aa60048036038101906102a59190612491565b610a3d565b005b6102c660048036038101906102c1919061255b565b610a53565b6040516102d39190612c73565b60405180910390f35b6102f660048036038101906102f19190612416565b610b71565b005b610312600480360381019061030d919061255b565b610bd3565b60405161031f9190612c73565b60405180910390f35b610342600480360381019061033d919061255b565b610cf1565b60405161034f9190612c73565b60405180910390f35b610360610e43565b005b61037c6004803603810190610377919061238b565b611049565b6040516103899190612c58565b60405180910390f35b60007f80ac58cd000000000000000000000000000000000000000000000000000000007bffffffffffffffffffffffffffffffffffffffffffffffffffffffff1916827bffffffffffffffffffffffffffffffffffffffffffffffffffffffff1916148061045d57507f5b5e139f000000000000000000000000000000000000000000000000000000007bffffffffffffffffffffffffffffffffffffffffffffffffffffffff1916827bffffffffffffffffffffffffffffffffffffffffffffffffffffffff1916145b8061046d575061046c82611176565b5b9050919050565b60606000805461048390613167565b80601f01602080910402602001604051908101604052809291908181526020018280546104af90613167565b80156104fc5780601f106104d1576101008083540402835291602001916104fc565b820191906000526020600020905b8154815290600101906020018083116104df57829003601f168201915b5050505050905090565b6000610511826111e0565b610550576040517f08c379a000000000000000000000000000000000000000000000000000000000815260040161054790612e53565b60405180910390fd5b6004600083815260200190815260200160002060009054906101000a900473ffffffffffffffffffffffffffffffffffffffff169050919050565b600061059682610841565b90508073ffffffffffffffffffffffffffffffffffffffff168373ffffffffffffffffffffffffffffffffffffffff161415610607576040517f08c379a00000000000000000000000000000000000000000000000000000000081526004016105fe90612e93565b60405180910390fd5b8073ffffffffffffffffffffffffffffffffffffffff1661062661124c565b73ffffffffffffffffffffffffffffffffffffffff16148061065557506106548161064f61124c565b611049565b5b610694576040517f08c379a000000000000000000000000000000000000000000000000000000000815260040161068b90612d93565b60405180910390fd5b61069e8383611254565b505050565b6106b46106ae61124c565b8261130d565b6106f3576040517f08c379a00000000000000000000000000000000000000000000000000000000081526004016106ea90612eb3565b60405180910390fd5b6106fe8383836113eb565b505050565b6060600061073761071384611652565b6040516020016107239190612b84565b6040516020818303038152906040526117ff565b90506009805490508161074a9190613213565b905060098181548110610786577f4e487b7100000000000000000000000000000000000000000000000000000000600052603260045260246000fd5b90600052602060002001805461079b90613167565b80601f01602080910402602001604051908101604052809291908181526020018280546107c790613167565b80156108145780601f106107e957610100808354040283529160200191610814565b820191906000526020600020905b8154815290600101906020018083116107f757829003601f168201915b5050505050915050919050565b61083c83838360405180602001604052806000815250610b71565b505050565b6000806002600084815260200190815260200160002060009054906101000a900473ffffffffffffffffffffffffffffffffffffffff169050600073ffffffffffffffffffffffffffffffffffffffff168173ffffffffffffffffffffffffffffffffffffffff1614156108ea576040517f08c379a00000000000000000000000000000000000000000000000000000000081526004016108e190612dd3565b60405180910390fd5b80915050919050565b60008073ffffffffffffffffffffffffffffffffffffffff168273ffffffffffffffffffffffffffffffffffffffff161415610964576040517f08c379a000000000000000000000000000000000000000000000000000000000815260040161095b90612db3565b60405180910390fd5b600360008373ffffffffffffffffffffffffffffffffffffffff1673ffffffffffffffffffffffffffffffffffffffff168152602001908152602001600020549050919050565b6060600180546109ba90613167565b80601f01602080910402602001604051908101604052809291908181526020018280546109e690613167565b8015610a335780601f10610a0857610100808354040283529160200191610a33565b820191906000526020600020905b815481529060010190602001808311610a1657829003601f168201915b5050505050905090565b610a4f610a4861124c565b8383611832565b5050565b60606000610a87610a6384611652565b604051602001610a739190612ba6565b6040516020818303038152906040526117ff565b9050600a8054905081610a9a9190613213565b9050600a8181548110610ad6577f4e487b7100000000000000000000000000000000000000000000000000000000600052603260045260246000fd5b906000526020600020018054610aeb90613167565b80601f0160208091040260200160405190810160405280929190818152602001828054610b1790613167565b8015610b645780601f10610b3957610100808354040283529160200191610b64565b820191906000526020600020905b815481529060010190602001808311610b4757829003601f168201915b5050505050915050919050565b610b82610b7c61124c565b8361130d565b610bc1576040517f08c379a0000000000000000000000000000000000000000000000000000000008152600401610bb890612eb3565b60405180910390fd5b610bcd8484848461199f565b50505050565b60606000610c07610be384611652565b604051602001610bf39190612afb565b6040516020818303038152906040526117ff565b9050600b8054905081610c1a9190613213565b9050600b8181548110610c56577f4e487b7100000000000000000000000000000000000000000000000000000000600052603260045260246000fd5b906000526020600020018054610c6b90613167565b80601f0160208091040260200160405190810160405280929190818152602001828054610c9790613167565b8015610ce45780601f10610cb957610100808354040283529160200191610ce4565b820191906000526020600020905b815481529060010190602001808311610cc757829003601f168201915b5050505050915050919050565b6060610cfc826111e0565b610d3b576040517f08c379a0000000000000000000000000000000000000000000000000000000008152600401610d3290612e33565b60405180910390fd5b6000600660008481526020019081526020016000208054610d5b90613167565b80601f0160208091040260200160405190810160405280929190818152602001828054610d8790613167565b8015610dd45780601f10610da957610100808354040283529160200191610dd4565b820191906000526020600020905b815481529060010190602001808311610db757829003601f168201915b505050505090506000610de56119fb565b9050600081511415610dfb578192505050610e3e565b600082511115610e30578082604051602001610e18929190612a55565b60405160208183030381529060405292505050610e3e565b610e3984611a12565b925050505b919050565b6000610e4f6007611ab9565b90506000610e5c82610703565b90506000610e6983610a53565b90506000610e7684610bd3565b90506000838383604051602001610e8f93929190612a79565b60405160208183030381529060405290506000600882604051602001610eb6929190612aaa565b60405160208183030381529060405290506000610efb83610ed684611ac7565b604051602001610ee7929190612b1d565b604051602081830303815290604052611ac7565b9050600081604051602001610f109190612b62565b6040516020818303038152906040529050610f5f6040518060400160405280601581526020017f0a2d2d2d2d2d2d2d2d2d2d2d2d2d2d2d2d2d2d2d2d00000000000000000000008152506110dd565b610f8781604051602001610f739190612ad9565b6040516020818303038152906040526110dd565b610fc56040518060400160405280601581526020017f2d2d2d2d2d2d2d2d2d2d2d2d2d2d2d2d2d2d2d2d0a00000000000000000000008152506110dd565b610fcf3389611c85565b610fd98882611ca3565b610ffc6040518060600160405280602581526020016139f5602591398933611d17565b6110066007611db6565b7febb98688741ffa4c7589bf325de30cf7becb63de567842e1ccdb6cb949fdc82c3389604051611037929190612c2f565b60405180910390a15050505050505050565b6000600560008473ffffffffffffffffffffffffffffffffffffffff1673ffffffffffffffffffffffffffffffffffffffff16815260200190815260200160002060008373ffffffffffffffffffffffffffffffffffffffff1673ffffffffffffffffffffffffffffffffffffffff16815260200190815260200160002060009054906101000a900460ff16905092915050565b611173816040516024016110f19190612c73565b6040516020818303038152906040527f41304fac000000000000000000000000000000000000000000000000000000007bffffffffffffffffffffffffffffffffffffffffffffffffffffffff19166020820180517bffffffffffffffffffffffffffffffffffffffffffffffffffffffff8381831617835250505050611dcc565b50565b60007f01ffc9a7000000000000000000000000000000000000000000000000000000007bffffffffffffffffffffffffffffffffffffffffffffffffffffffff1916827bffffffffffffffffffffffffffffffffffffffffffffffffffffffff1916149050919050565b60008073ffffffffffffffffffffffffffffffffffffffff166002600084815260200190815260200160002060009054906101000a900473ffffffffffffffffffffffffffffffffffffffff1673ffffffffffffffffffffffffffffffffffffffff1614159050919050565b600033905090565b816004600083815260200190815260200160002060006101000a81548173ffffffffffffffffffffffffffffffffffffffff021916908373ffffffffffffffffffffffffffffffffffffffff160217905550808273ffffffffffffffffffffffffffffffffffffffff166112c783610841565b73ffffffffffffffffffffffffffffffffffffffff167f8c5be1e5ebec7d5bd14f71427d1e84f3dd0314c0f7b2291e5b200ac8c7c3b92560405160405180910390a45050565b6000611318826111e0565b611357576040517f08c379a000000000000000000000000000000000000000000000000000000000815260040161134e90612d73565b60405180910390fd5b600061136283610841565b90508073ffffffffffffffffffffffffffffffffffffffff168473ffffffffffffffffffffffffffffffffffffffff1614806113d157508373ffffffffffffffffffffffffffffffffffffffff166113b984610506565b73ffffffffffffffffffffffffffffffffffffffff16145b806113e257506113e18185611049565b5b91505092915050565b8273ffffffffffffffffffffffffffffffffffffffff1661140b82610841565b73ffffffffffffffffffffffffffffffffffffffff1614611461576040517f08c379a000000000000000000000000000000000000000000000000000000000815260040161145890612cf3565b60405180910390fd5b600073ffffffffffffffffffffffffffffffffffffffff168273ffffffffffffffffffffffffffffffffffffffff1614156114d1576040517f08c379a00000000000000000000000000000000000000000000000000000000081526004016114c890612d33565b60405180910390fd5b6114dc838383611df5565b6114e7600082611254565b6001600360008573ffffffffffffffffffffffffffffffffffffffff1673ffffffffffffffffffffffffffffffffffffffff1681526020019081526020016000206000828254611537919061307d565b925050819055506001600360008473ffffffffffffffffffffffffffffffffffffffff1673ffffffffffffffffffffffffffffffffffffffff168152602001908152602001600020600082825461158e9190612f9c565b92505081905550816002600083815260200190815260200160002060006101000a81548173ffffffffffffffffffffffffffffffffffffffff021916908373ffffffffffffffffffffffffffffffffffffffff160217905550808273ffffffffffffffffffffffffffffffffffffffff168473ffffffffffffffffffffffffffffffffffffffff167fddf252ad1be2c89b69c2b068fc378daa952ba7f163c4a11628f55a4df523b3ef60405160405180910390a461164d838383611dfa565b505050565b6060600082141561169a576040518060400160405280600181526020017f300000000000000000000000000000000000000000000000000000000000000081525090506117fa565b600082905060005b600082146116cc5780806116b5906131ca565b915050600a826116c59190612ff2565b91506116a2565b60008167ffffffffffffffff81111561170e577f4e487b7100000000000000000000000000000000000000000000000000000000600052604160045260246000fd5b6040519080825280601f01601f1916602001820160405280156117405781602001600182028036833780820191505090505b5090505b600085146117f357600182611759919061307d565b9150600a856117689190613213565b60306117749190612f9c565b60f81b8183815181106117b0577f4e487b7100000000000000000000000000000000000000000000000000000000600052603260045260246000fd5b60200101907effffffffffffffffffffffffffffffffffffffffffffffffffffffffffffff1916908160001a905350600a856117ec9190612ff2565b9450611744565b8093505050505b919050565b6000816040516020016118129190612a3e565b6040516020818303038152906040528051906020012060001c9050919050565b8173ffffffffffffffffffffffffffffffffffffffff168373ffffffffffffffffffffffffffffffffffffffff1614156118a1576040517f08c379a000000000000000000000000000000000000000000000000000000000815260040161189890612d53565b60405180910390fd5b80600560008573ffffffffffffffffffffffffffffffffffffffff1673ffffffffffffffffffffffffffffffffffffffff16815260200190815260200160002060008473ffffffffffffffffffffffffffffffffffffffff1673ffffffffffffffffffffffffffffffffffffffff16815260200190815260200160002060006101000a81548160ff0219169083151502179055508173ffffffffffffffffffffffffffffffffffffffff168373ffffffffffffffffffffffffffffffffffffffff167f17307eab39ab6107e8899845ad3d59bd9653f200f220920489ca2b5937696c31836040516119929190612c58565b60405180910390a3505050565b6119aa8484846113eb565b6119b684848484611dff565b6119f5576040517f08c379a00000000000000000000000000000000000000000000000000000000081526004016119ec90612cd3565b60405180910390fd5b50505050565b606060405180602001604052806000815250905090565b6060611a1d826111e0565b611a5c576040517f08c379a0000000000000000000000000000000000000000000000000000000008152600401611a5390612e73565b60405180910390fd5b6000611a666119fb565b90506000815111611a865760405180602001604052806000815250611ab1565b80611a9084611652565b604051602001611aa1929190612a55565b6040516020818303038152906040525b915050919050565b600081600001549050919050565b60606000825190506000811415611af05760405180602001604052806000815250915050611c80565b60006003600283611b019190612f9c565b611b0b9190612ff2565b6004611b179190613023565b90506000602082611b289190612f9c565b67ffffffffffffffff811115611b67577f4e487b7100000000000000000000000000000000000000000000000000000000600052604160045260246000fd5b6040519080825280601f01601f191660200182016040528015611b995781602001600182028036833780820191505090505b5090506000604051806060016040528060408152602001613a1a604091399050600181016020830160005b86811015611c3d5760038101905062ffffff818a015116603f8160121c168401518060081b905060ff603f83600c1c1686015116810190508060081b905060ff603f8360061c1686015116810190508060081b905060ff603f831686015116810190508060e01b90508084526004840193505050611bc4565b506003860660018114611c575760028114611c6757611c72565b613d3d60f01b6002830352611c72565b603d60f81b60018303525b508484525050819450505050505b919050565b611c9f828260405180602001604052806000815250611f96565b5050565b611cac826111e0565b611ceb576040517f08c379a0000000000000000000000000000000000000000000000000000000008152600401611ce290612df3565b60405180910390fd5b80600660008481526020019081526020016000209080519060200190611d129291906121ee565b505050565b611db1838383604051602401611d2f93929190612c95565b6040516020818303038152906040527fe3849f79000000000000000000000000000000000000000000000000000000007bffffffffffffffffffffffffffffffffffffffffffffffffffffffff19166020820180517bffffffffffffffffffffffffffffffffffffffffffffffffffffffff8381831617835250505050611dcc565b505050565b6001816000016000828254019250508190555050565b60008151905060006a636f6e736f6c652e6c6f679050602083016000808483855afa5050505050565b505050565b505050565b6000611e208473ffffffffffffffffffffffffffffffffffffffff16611ff1565b15611f89578373ffffffffffffffffffffffffffffffffffffffff1663150b7a02611e4961124c565b8786866040518563ffffffff1660e01b8152600401611e6b9493929190612be3565b602060405180830381600087803b158015611e8557600080fd5b505af1925050508015611eb657506040513d601f19601f82011682018060405250810190611eb39190612532565b60015b611f39573d8060008114611ee6576040519150601f19603f3d011682016040523d82523d6000602084013e611eeb565b606091505b50600081511415611f31576040517f08c379a0000000000000000000000000000000000000000000000000000000008152600401611f2890612cd3565b60405180910390fd5b805181602001fd5b63150b7a0260e01b7bffffffffffffffffffffffffffffffffffffffffffffffffffffffff1916817bffffffffffffffffffffffffffffffffffffffffffffffffffffffff191614915050611f8e565b600190505b949350505050565b611fa08383612014565b611fad6000848484611dff565b611fec576040517f08c379a0000000000000000000000000000000000000000000000000000000008152600401611fe390612cd3565b60405180910390fd5b505050565b6000808273ffffffffffffffffffffffffffffffffffffffff163b119050919050565b600073ffffffffffffffffffffffffffffffffffffffff168273ffffffffffffffffffffffffffffffffffffffff161415612084576040517f08c379a000000000000000000000000000000000000000000000000000000000815260040161207b90612e13565b60405180910390fd5b61208d816111e0565b156120cd576040517f08c379a00000000000000000000000000000000000000000000000000000000081526004016120c490612d13565b60405180910390fd5b6120d960008383611df5565b6001600360008473ffffffffffffffffffffffffffffffffffffffff1673ffffffffffffffffffffffffffffffffffffffff16815260200190815260200160002060008282546121299190612f9c565b92505081905550816002600083815260200190815260200160002060006101000a81548173ffffffffffffffffffffffffffffffffffffffff021916908373ffffffffffffffffffffffffffffffffffffffff160217905550808273ffffffffffffffffffffffffffffffffffffffff16600073ffffffffffffffffffffffffffffffffffffffff167fddf252ad1be2c89b69c2b068fc378daa952ba7f163c4a11628f55a4df523b3ef60405160405180910390a46121ea60008383611dfa565b5050565b8280546121fa90613167565b90600052602060002090601f01602090048101928261221c5760008555612263565b82601f1061223557805160ff1916838001178555612263565b82800160010185558215612263579182015b82811115612262578251825591602001919060010190612247565b5b5090506122709190612274565b5090565b5b8082111561228d576000816000905550600101612275565b5090565b60006122a461229f84612f13565b612eee565b9050828152602081018484840111156122bc57600080fd5b6122c7848285613125565b509392505050565b6000813590506122de81613998565b92915050565b6000813590506122f3816139af565b92915050565b600081359050612308816139c6565b92915050565b60008151905061231d816139c6565b92915050565b600082601f83011261233457600080fd5b8135612344848260208601612291565b91505092915050565b60008135905061235c816139dd565b92915050565b60006020828403121561237457600080fd5b6000612382848285016122cf565b91505092915050565b6000806040838503121561239e57600080fd5b60006123ac858286016122cf565b92505060206123bd858286016122cf565b9150509250929050565b6000806000606084860312156123dc57600080fd5b60006123ea868287016122cf565b93505060206123fb868287016122cf565b925050604061240c8682870161234d565b9150509250925092565b6000806000806080858703121561242c57600080fd5b600061243a878288016122cf565b945050602061244b878288016122cf565b935050604061245c8782880161234d565b925050606085013567ffffffffffffffff81111561247957600080fd5b61248587828801612323565b91505092959194509250565b600080604083850312156124a457600080fd5b60006124b2858286016122cf565b92505060206124c3858286016122e4565b9150509250929050565b600080604083850312156124e057600080fd5b60006124ee858286016122cf565b92505060206124ff8582860161234d565b9150509250929050565b60006020828403121561251b57600080fd5b6000612529848285016122f9565b91505092915050565b60006020828403121561254457600080fd5b60006125528482850161230e565b91505092915050565b60006020828403121561256d57600080fd5b600061257b8482850161234d565b91505092915050565b61258d816130b1565b82525050565b61259c816130c3565b82525050565b60006125ad82612f59565b6125b78185612f6f565b93506125c7818560208601613134565b6125d081613300565b840191505092915050565b60006125e682612f64565b6125f08185612f80565b9350612600818560208601613134565b61260981613300565b840191505092915050565b600061261f82612f64565b6126298185612f91565b9350612639818560208601613134565b80840191505092915050565b6000815461265281613167565b61265c8186612f91565b945060018216600081146126775760018114612688576126bb565b60ff198316865281860193506126bb565b61269185612f44565b60005b838110156126b357815481890152600182019150602081019050612694565b838801955050505b50505092915050565b60006126d1602583612f91565b91506126dc82613311565b602582019050919050565b60006126f4603283612f80565b91506126ff82613360565b604082019050919050565b6000612717602583612f80565b9150612722826133af565b604082019050919050565b600061273a601c83612f80565b9150612745826133fe565b602082019050919050565b600061275d602483612f80565b915061276882613427565b604082019050919050565b6000612780601983612f80565b915061278b82613476565b602082019050919050565b60006127a3606383612f91565b91506127ae8261349f565b606382019050919050565b60006127c6602c83612f80565b91506127d18261353a565b604082019050919050565b60006127e9600d83612f91565b91506127f482613589565b600d82019050919050565b600061280c600683612f91565b9150612817826135b2565b600682019050919050565b600061282f603883612f80565b915061283a826135db565b604082019050919050565b6000612852602a83612f80565b915061285d8261362a565b604082019050919050565b6000612875602983612f80565b915061288082613679565b604082019050919050565b6000612898602e83612f80565b91506128a3826136c8565b604082019050919050565b60006128bb600283612f91565b91506128c682613717565b600282019050919050565b60006128de602083612f80565b91506128e982613740565b602082019050919050565b6000612901603183612f80565b915061290c82613769565b604082019050919050565b6000612924602c83612f80565b915061292f826137b8565b604082019050919050565b6000612947602f83612f80565b915061295282613807565b604082019050919050565b600061296a600a83612f91565b915061297582613856565b600a82019050919050565b600061298d602183612f80565b91506129988261387f565b604082019050919050565b60006129b0601d83612f91565b91506129bb826138ce565b601d82019050919050565b60006129d3603183612f80565b91506129de826138f7565b604082019050919050565b60006129f6600583612f91565b9150612a0182613946565b600582019050919050565b6000612a19600783612f91565b9150612a248261396f565b600782019050919050565b612a388161311b565b82525050565b6000612a4a8284612614565b915081905092915050565b6000612a618285612614565b9150612a6d8284612614565b91508190509392505050565b6000612a858286612614565b9150612a918285612614565b9150612a9d8284612614565b9150819050949350505050565b6000612ab68285612645565b9150612ac28284612614565b9150612acd826127dc565b91508190509392505050565b6000612ae4826126c4565b9150612af08284612614565b915081905092915050565b6000612b06826127ff565b9150612b128284612614565b915081905092915050565b6000612b288261295d565b9150612b348285612614565b9150612b3f82612796565b9150612b4b8284612614565b9150612b56826128ae565b91508190509392505050565b6000612b6d826129a3565b9150612b798284612614565b915081905092915050565b6000612b8f826129e9565b9150612b9b8284612614565b915081905092915050565b6000612bb182612a0c565b9150612bbd8284612614565b915081905092915050565b6000602082019050612bdd6000830184612584565b92915050565b6000608082019050612bf86000830187612584565b612c056020830186612584565b612c126040830185612a2f565b8181036060830152612c2481846125a2565b905095945050505050565b6000604082019050612c446000830185612584565b612c516020830184612a2f565b9392505050565b6000602082019050612c6d6000830184612593565b92915050565b60006020820190508181036000830152612c8d81846125db565b905092915050565b60006060820190508181036000830152612caf81866125db565b9050612cbe6020830185612a2f565b612ccb6040830184612584565b949350505050565b60006020820190508181036000830152612cec816126e7565b9050919050565b60006020820190508181036000830152612d0c8161270a565b9050919050565b60006020820190508181036000830152612d2c8161272d565b9050919050565b60006020820190508181036000830152612d4c81612750565b9050919050565b60006020820190508181036000830152612d6c81612773565b9050919050565b60006020820190508181036000830152612d8c816127b9565b9050919050565b60006020820190508181036000830152612dac81612822565b9050919050565b60006020820190508181036000830152612dcc81612845565b9050919050565b60006020820190508181036000830152612dec81612868565b9050919050565b60006020820190508181036000830152612e0c8161288b565b9050919050565b60006020820190508181036000830152612e2c816128d1565b9050919050565b60006020820190508181036000830152612e4c816128f4565b9050919050565b60006020820190508181036000830152612e6c81612917565b9050919050565b60006020820190508181036000830152612e8c8161293a565b9050919050565b60006020820190508181036000830152612eac81612980565b9050919050565b60006020820190508181036000830152612ecc816129c6565b9050919050565b6000602082019050612ee86000830184612a2f565b92915050565b6000612ef8612f09565b9050612f048282613199565b919050565b6000604051905090565b600067ffffffffffffffff821115612f2e57612f2d6132d1565b5b612f3782613300565b9050602081019050919050565b60008190508160005260206000209050919050565b600081519050919050565b600081519050919050565b600082825260208201905092915050565b600082825260208201905092915050565b600081905092915050565b6000612fa78261311b565b9150612fb28361311b565b9250827fffffffffffffffffffffffffffffffffffffffffffffffffffffffffffffffff03821115612fe757612fe6613244565b5b828201905092915050565b6000612ffd8261311b565b91506130088361311b565b92508261301857613017613273565b5b828204905092915050565b600061302e8261311b565b91506130398361311b565b9250817fffffffffffffffffffffffffffffffffffffffffffffffffffffffffffffffff048311821515161561307257613071613244565b5b828202905092915050565b60006130888261311b565b91506130938361311b565b9250828210156130a6576130a5613244565b5b828203905092915050565b60006130bc826130fb565b9050919050565b60008115159050919050565b60007fffffffff0000000000000000000000000000000000000000000000000000000082169050919050565b600073ffffffffffffffffffffffffffffffffffffffff82169050919050565b6000819050919050565b82818337600083830152505050565b60005b83811015613152578082015181840152602081019050613137565b83811115613161576000848401525b50505050565b6000600282049050600182168061317f57607f821691505b60208210811415613193576131926132a2565b5b50919050565b6131a282613300565b810181811067ffffffffffffffff821117156131c1576131c06132d1565b5b80604052505050565b60006131d58261311b565b91507fffffffffffffffffffffffffffffffffffffffffffffffffffffffffffffffff82141561320857613207613244565b5b600182019050919050565b600061321e8261311b565b91506132298361311b565b92508261323957613238613273565b5b828206905092915050565b7f4e487b7100000000000000000000000000000000000000000000000000000000600052601160045260246000fd5b7f4e487b7100000000000000000000000000000000000000000000000000000000600052601260045260246000fd5b7f4e487b7100000000000000000000000000000000000000000000000000000000600052602260045260246000fd5b7f4e487b7100000000000000000000000000000000000000000000000000000000600052604160045260246000fd5b6000601f19601f8301169050919050565b7f68747470733a2f2f6e6674707265766965772e30786465762e636f6465732f3f60008201527f636f64653d000000000000000000000000000000000000000000000000000000602082015250565b7f4552433732313a207472616e7366657220746f206e6f6e20455243373231526560008201527f63656976657220696d706c656d656e7465720000000000000000000000000000602082015250565b7f4552433732313a207472616e736665722066726f6d20696e636f72726563742060008201527f6f776e6572000000000000000000000000000000000000000000000000000000602082015250565b7f4552433732313a20746f6b656e20616c7265616479206d696e74656400000000600082015250565b7f4552433732313a207472616e7366657220746f20746865207a65726f2061646460008201527f7265737300000000000000000000000000000000000000000000000000000000602082015250565b7f4552433732313a20617070726f766520746f2063616c6c657200000000000000600082015250565b7f222c20226465736372697074696f6e223a20224120686967686c79206163636c60008201527f61696d656420636f6c6c656374696f6e206f6620737175617265732e222c202260208201527f696d616765223a2022646174613a696d6167652f7376672b786d6c3b6261736560408201527f36342c0000000000000000000000000000000000000000000000000000000000606082015250565b7f4552433732313a206f70657261746f7220717565727920666f72206e6f6e657860008201527f697374656e7420746f6b656e0000000000000000000000000000000000000000602082015250565b7f3c2f746578743e3c2f7376673e00000000000000000000000000000000000000600082015250565b7f4e617275746f0000000000000000000000000000000000000000000000000000600082015250565b7f4552433732313a20617070726f76652063616c6c6572206973206e6f74206f7760008201527f6e6572206e6f7220617070726f76656420666f7220616c6c0000000000000000602082015250565b7f4552433732313a2062616c616e636520717565727920666f7220746865207a6560008201527f726f206164647265737300000000000000000000000000000000000000000000602082015250565b7f4552433732313a206f776e657220717565727920666f72206e6f6e657869737460008201527f656e7420746f6b656e0000000000000000000000000000000000000000000000602082015250565b7f45524337323155524953746f726167653a2055524920736574206f66206e6f6e60008201527f6578697374656e7420746f6b656e000000000000000000000000000000000000602082015250565b7f227d000000000000000000000000000000000000000000000000000000000000600082015250565b7f4552433732313a206d696e7420746f20746865207a65726f2061646472657373600082015250565b7f45524337323155524953746f726167653a2055524920717565727920666f722060008201527f6e6f6e6578697374656e7420746f6b656e000000000000000000000000000000602082015250565b7f4552433732313a20617070726f76656420717565727920666f72206e6f6e657860008201527f697374656e7420746f6b656e0000000000000000000000000000000000000000602082015250565b7f4552433732314d657461646174613a2055524920717565727920666f72206e6f60008201527f6e6578697374656e7420746f6b656e0000000000000000000000000000000000602082015250565b7f7b226e616d65223a202200000000000000000000000000000000000000000000600082015250565b7f4552433732313a20617070726f76616c20746f2063757272656e74206f776e6560008201527f7200000000000000000000000000000000000000000000000000000000000000602082015250565b7f646174613a6170706c69636174696f6e2f6a736f6e3b6261736536342c000000600082015250565b7f4552433732313a207472616e736665722063616c6c6572206973206e6f74206f60008201527f776e6572206e6f7220617070726f766564000000000000000000000000000000602082015250565b7f5375706572000000000000000000000000000000000000000000000000000000600082015250565b7f416d617a696e6700000000000000000000000000000000000000000000000000600082015250565b6139a1816130b1565b81146139ac57600080fd5b50565b6139b8816130c3565b81146139c357600080fd5b50565b6139cf816130cf565b81146139da57600080fd5b50565b6139e68161311b565b81146139f157600080fd5b5056fe416e204e465420772f20494420257320686173206265656e206d696e74656420746f2025734142434445464748494a4b4c4d4e4f505152535455565758595a6162636465666768696a6b6c6d6e6f707172737475767778797a303132333435363738392b2fa264697066735822122058da9a04e5ff00103a9b57b27f3efbceaf3c8da155c3f65425e0b6acc9469abb64736f6c634300080100333c73766720786d6c6e733d22687474703a2f2f7777772e77332e6f72672f323030302f73766722207072657365727665417370656374526174696f3d22784d696e594d696e206d656574222076696577426f783d223020302033353020333530223e3c646566733e3c6c696e6561724772616469656e742069643d2261222078313d223025222079313d223025222078323d2231303025222079323d22302522206772616469656e745472616e73666f726d3d22726f7461746528333029223e3c73746f70206f66667365743d22302522207374796c653d2273746f702d636f6c6f723a233661623163383b73746f702d6f7061636974793a31222f3e3c73746f70206f66667365743d223130302522207374796c653d2273746f702d636f6c6f723a236264653966613b73746f702d6f7061636974793a31222f3e3c2f6c696e6561724772616469656e743e3c2f646566733e3c726563742077696474683d223130302522206865696768743d2231303025222066696c6c3d2275726c28236129222f3e3c7465787420783d223530252220793d223530252220646f6d696e616e742d626173656c696e653d226d6964646c652220746578742d616e63686f723d226d6964646c6522207374796c653d2266696c6c3a2671756f743b233033326133372671756f743b3b666f6e742d7765696768743a3730303b666f6e742d66616d696c793a7461686f6d613b666f6e742d73697a653a31367078223e",
  "linkReferences": {},
  "deployedLinkReferences": {}
}